{
  "_format": "hh-sol-artifact-1",
  "contractName": "GaugeV2",
  "sourceName": "contracts/GaugeV2.sol",
  "abi": [
    {
      "inputs": [
        {
          "internalType": "address",
          "name": "_rewardToken",
          "type": "address"
        },
        {
          "internalType": "address",
          "name": "_ve",
          "type": "address"
        },
        {
          "internalType": "address",
          "name": "_token",
          "type": "address"
        },
        {
          "internalType": "address",
          "name": "_distribution",
          "type": "address"
        },
        {
          "internalType": "address",
          "name": "_internal_bribe",
          "type": "address"
        },
        {
          "internalType": "address",
          "name": "_external_bribe",
          "type": "address"
        },
        {
          "internalType": "bool",
          "name": "_isForPair",
          "type": "bool"
        },
        {
          "internalType": "address",
          "name": "_genesisManager",
          "type": "address"
        }
      ],
      "stateMutability": "nonpayable",
      "type": "constructor"
    },
    {
      "anonymous": false,
      "inputs": [
        {
          "indexed": true,
          "internalType": "address",
          "name": "from",
          "type": "address"
        },
        {
          "indexed": false,
          "internalType": "uint256",
          "name": "claimed0",
          "type": "uint256"
        },
        {
          "indexed": false,
          "internalType": "uint256",
          "name": "claimed1",
          "type": "uint256"
        }
      ],
      "name": "ClaimFees",
      "type": "event"
    },
    {
      "anonymous": false,
      "inputs": [
        {
          "indexed": true,
          "internalType": "address",
          "name": "user",
          "type": "address"
        },
        {
          "indexed": false,
          "internalType": "uint256",
          "name": "amount",
          "type": "uint256"
        }
      ],
      "name": "Deposit",
      "type": "event"
    },
    {
      "anonymous": false,
      "inputs": [
        {
          "indexed": false,
          "internalType": "address",
          "name": "owner",
          "type": "address"
        },
        {
          "indexed": false,
          "internalType": "uint256",
          "name": "amount",
          "type": "uint256"
        }
      ],
      "name": "DepositsForGenesis",
      "type": "event"
    },
    {
      "anonymous": false,
      "inputs": [
        {
          "indexed": true,
          "internalType": "address",
          "name": "gauge",
          "type": "address"
        },
        {
          "indexed": false,
          "internalType": "uint256",
          "name": "timestamp",
          "type": "uint256"
        }
      ],
      "name": "EmergencyActivated",
      "type": "event"
    },
    {
      "anonymous": false,
      "inputs": [
        {
          "indexed": true,
          "internalType": "address",
          "name": "gauge",
          "type": "address"
        },
        {
          "indexed": false,
          "internalType": "uint256",
          "name": "timestamp",
          "type": "uint256"
        }
      ],
      "name": "EmergencyDeactivated",
      "type": "event"
    },
    {
      "anonymous": false,
      "inputs": [
        {
          "indexed": true,
          "internalType": "address",
          "name": "user",
          "type": "address"
        },
        {
          "indexed": false,
          "internalType": "uint256",
          "name": "reward",
          "type": "uint256"
        }
      ],
      "name": "Harvest",
      "type": "event"
    },
    {
      "anonymous": false,
      "inputs": [
        {
          "indexed": true,
          "internalType": "address",
          "name": "previousOwner",
          "type": "address"
        },
        {
          "indexed": true,
          "internalType": "address",
          "name": "newOwner",
          "type": "address"
        }
      ],
      "name": "OwnershipTransferred",
      "type": "event"
    },
    {
      "anonymous": false,
      "inputs": [
        {
          "indexed": false,
          "internalType": "uint256",
          "name": "reward",
          "type": "uint256"
        }
      ],
      "name": "RewardAdded",
      "type": "event"
    },
    {
      "anonymous": false,
      "inputs": [
        {
          "indexed": true,
          "internalType": "address",
          "name": "user",
          "type": "address"
        },
        {
          "indexed": false,
          "internalType": "uint256",
          "name": "amount",
          "type": "uint256"
        }
      ],
      "name": "Withdraw",
      "type": "event"
    },
    {
      "inputs": [],
      "name": "DISTRIBUTION",
      "outputs": [
        {
          "internalType": "address",
          "name": "",
          "type": "address"
        }
      ],
      "stateMutability": "view",
      "type": "function"
    },
    {
      "inputs": [],
      "name": "DURATION",
      "outputs": [
        {
          "internalType": "uint256",
          "name": "",
          "type": "uint256"
        }
      ],
      "stateMutability": "view",
      "type": "function"
    },
    {
      "inputs": [],
      "name": "TOKEN",
      "outputs": [
        {
          "internalType": "contract IERC20",
          "name": "",
          "type": "address"
        }
      ],
      "stateMutability": "view",
      "type": "function"
    },
    {
      "inputs": [],
      "name": "VE",
      "outputs": [
        {
          "internalType": "address",
          "name": "",
          "type": "address"
        }
      ],
      "stateMutability": "view",
      "type": "function"
    },
    {
      "inputs": [],
      "name": "activateEmergencyMode",
      "outputs": [],
      "stateMutability": "nonpayable",
      "type": "function"
    },
    {
      "inputs": [
        {
          "internalType": "address",
          "name": "account",
          "type": "address"
        }
      ],
      "name": "balanceOf",
      "outputs": [
        {
          "internalType": "uint256",
          "name": "",
          "type": "uint256"
        }
      ],
      "stateMutability": "view",
      "type": "function"
    },
    {
      "inputs": [],
      "name": "claimFees",
      "outputs": [
        {
          "internalType": "uint256",
          "name": "claimed0",
          "type": "uint256"
        },
        {
          "internalType": "uint256",
          "name": "claimed1",
          "type": "uint256"
        }
      ],
      "stateMutability": "nonpayable",
      "type": "function"
    },
    {
      "inputs": [
        {
          "internalType": "uint256",
          "name": "amount",
          "type": "uint256"
        }
      ],
      "name": "deposit",
      "outputs": [],
      "stateMutability": "nonpayable",
      "type": "function"
    },
    {
      "inputs": [],
      "name": "depositAll",
      "outputs": [],
      "stateMutability": "nonpayable",
      "type": "function"
    },
    {
      "inputs": [
        {
          "internalType": "address",
          "name": "_tokenOwner",
          "type": "address"
        },
        {
          "internalType": "uint256",
          "name": "_timestamp",
          "type": "uint256"
        },
        {
          "internalType": "uint256",
          "name": "_totalAmount",
          "type": "uint256"
        }
      ],
      "name": "depositsForGenesis",
      "outputs": [],
      "stateMutability": "nonpayable",
      "type": "function"
    },
    {
      "inputs": [
        {
          "internalType": "address",
          "name": "account",
          "type": "address"
        }
      ],
      "name": "earned",
      "outputs": [
        {
          "internalType": "uint256",
          "name": "",
          "type": "uint256"
        }
      ],
      "stateMutability": "view",
      "type": "function"
    },
    {
      "inputs": [],
      "name": "emergency",
      "outputs": [
        {
          "internalType": "bool",
          "name": "",
          "type": "bool"
        }
      ],
      "stateMutability": "view",
      "type": "function"
    },
    {
      "inputs": [],
      "name": "emergencyWithdraw",
      "outputs": [],
      "stateMutability": "nonpayable",
      "type": "function"
    },
    {
      "inputs": [
        {
          "internalType": "uint256",
          "name": "_amount",
          "type": "uint256"
        }
      ],
      "name": "emergencyWithdrawAmount",
      "outputs": [],
      "stateMutability": "nonpayable",
      "type": "function"
    },
    {
      "inputs": [],
      "name": "external_bribe",
      "outputs": [
        {
          "internalType": "address",
          "name": "",
          "type": "address"
        }
      ],
      "stateMutability": "view",
      "type": "function"
    },
    {
      "inputs": [],
      "name": "gaugeRewarder",
      "outputs": [
        {
          "internalType": "address",
          "name": "",
          "type": "address"
        }
      ],
      "stateMutability": "view",
      "type": "function"
    },
    {
      "inputs": [],
      "name": "genesisManager",
      "outputs": [
        {
          "internalType": "address",
          "name": "",
          "type": "address"
        }
      ],
      "stateMutability": "view",
      "type": "function"
    },
    {
      "inputs": [],
      "name": "genesisPool",
      "outputs": [
        {
          "internalType": "address",
          "name": "",
          "type": "address"
        }
      ],
      "stateMutability": "view",
      "type": "function"
    },
    {
      "inputs": [],
      "name": "getReward",
      "outputs": [],
      "stateMutability": "nonpayable",
      "type": "function"
    },
    {
      "inputs": [
        {
          "internalType": "address",
          "name": "_user",
          "type": "address"
        }
      ],
      "name": "getReward",
      "outputs": [],
      "stateMutability": "nonpayable",
      "type": "function"
    },
    {
      "inputs": [],
      "name": "internal_bribe",
      "outputs": [
        {
          "internalType": "address",
          "name": "",
          "type": "address"
        }
      ],
      "stateMutability": "view",
      "type": "function"
    },
    {
      "inputs": [],
      "name": "isForPair",
      "outputs": [
        {
          "internalType": "bool",
          "name": "",
          "type": "bool"
        }
      ],
      "stateMutability": "view",
      "type": "function"
    },
    {
      "inputs": [],
      "name": "lastTimeRewardApplicable",
      "outputs": [
        {
          "internalType": "uint256",
          "name": "",
          "type": "uint256"
        }
      ],
      "stateMutability": "view",
      "type": "function"
    },
    {
      "inputs": [],
      "name": "lastUpdateTime",
      "outputs": [
        {
          "internalType": "uint256",
          "name": "",
          "type": "uint256"
        }
      ],
      "stateMutability": "view",
      "type": "function"
    },
    {
      "inputs": [
        {
          "internalType": "address",
          "name": "",
          "type": "address"
        }
      ],
      "name": "maturityTime",
      "outputs": [
        {
          "internalType": "uint256",
          "name": "",
          "type": "uint256"
        }
      ],
      "stateMutability": "view",
      "type": "function"
    },
    {
      "inputs": [
        {
          "internalType": "address",
          "name": "token",
          "type": "address"
        },
        {
          "internalType": "uint256",
          "name": "reward",
          "type": "uint256"
        }
      ],
      "name": "notifyRewardAmount",
      "outputs": [],
      "stateMutability": "nonpayable",
      "type": "function"
    },
    {
      "inputs": [],
      "name": "owner",
      "outputs": [
        {
          "internalType": "address",
          "name": "",
          "type": "address"
        }
      ],
      "stateMutability": "view",
      "type": "function"
    },
    {
      "inputs": [],
      "name": "periodFinish",
      "outputs": [
        {
          "internalType": "uint256",
          "name": "",
          "type": "uint256"
        }
      ],
      "stateMutability": "view",
      "type": "function"
    },
    {
      "inputs": [],
      "name": "renounceOwnership",
      "outputs": [],
      "stateMutability": "nonpayable",
      "type": "function"
    },
    {
      "inputs": [],
      "name": "rewardForDuration",
      "outputs": [
        {
          "internalType": "uint256",
          "name": "",
          "type": "uint256"
        }
      ],
      "stateMutability": "view",
      "type": "function"
    },
    {
      "inputs": [],
      "name": "rewardPerToken",
      "outputs": [
        {
          "internalType": "uint256",
          "name": "",
          "type": "uint256"
        }
      ],
      "stateMutability": "view",
      "type": "function"
    },
    {
      "inputs": [],
      "name": "rewardPerTokenStored",
      "outputs": [
        {
          "internalType": "uint256",
          "name": "",
          "type": "uint256"
        }
      ],
      "stateMutability": "view",
      "type": "function"
    },
    {
      "inputs": [],
      "name": "rewardRate",
      "outputs": [
        {
          "internalType": "uint256",
          "name": "",
          "type": "uint256"
        }
      ],
      "stateMutability": "view",
      "type": "function"
    },
    {
      "inputs": [],
      "name": "rewardToken",
      "outputs": [
        {
          "internalType": "contract IERC20",
          "name": "",
          "type": "address"
        }
      ],
      "stateMutability": "view",
      "type": "function"
    },
    {
      "inputs": [
        {
          "internalType": "address",
          "name": "",
          "type": "address"
        }
      ],
      "name": "rewards",
      "outputs": [
        {
          "internalType": "uint256",
          "name": "",
          "type": "uint256"
        }
      ],
      "stateMutability": "view",
      "type": "function"
    },
    {
      "inputs": [
        {
          "internalType": "address",
          "name": "_distribution",
          "type": "address"
        }
      ],
      "name": "setDistribution",
      "outputs": [],
      "stateMutability": "nonpayable",
      "type": "function"
    },
    {
      "inputs": [
        {
          "internalType": "address",
          "name": "_gaugeRewarder",
          "type": "address"
        }
      ],
      "name": "setGaugeRewarder",
      "outputs": [],
      "stateMutability": "nonpayable",
      "type": "function"
    },
    {
      "inputs": [
        {
          "internalType": "address",
          "name": "_genesisPool",
          "type": "address"
        }
      ],
      "name": "setGenesisPool",
      "outputs": [],
      "stateMutability": "nonpayable",
      "type": "function"
    },
    {
      "inputs": [
        {
          "internalType": "address",
          "name": "_genesisPoolManager",
          "type": "address"
        }
      ],
      "name": "setGenesisPoolManager",
      "outputs": [],
      "stateMutability": "nonpayable",
      "type": "function"
    },
    {
      "inputs": [
        {
          "internalType": "address",
          "name": "_int",
          "type": "address"
        }
      ],
      "name": "setInternalBribe",
      "outputs": [],
      "stateMutability": "nonpayable",
      "type": "function"
    },
    {
      "inputs": [],
      "name": "stopEmergencyMode",
      "outputs": [],
      "stateMutability": "nonpayable",
      "type": "function"
    },
    {
      "inputs": [],
      "name": "totalSupply",
      "outputs": [
        {
          "internalType": "uint256",
          "name": "",
          "type": "uint256"
        }
      ],
      "stateMutability": "view",
      "type": "function"
    },
    {
      "inputs": [
        {
          "internalType": "address",
          "name": "newOwner",
          "type": "address"
        }
      ],
      "name": "transferOwnership",
      "outputs": [],
      "stateMutability": "nonpayable",
      "type": "function"
    },
    {
      "inputs": [
        {
          "internalType": "address",
          "name": "",
          "type": "address"
        }
      ],
      "name": "userRewardPerTokenPaid",
      "outputs": [
        {
          "internalType": "uint256",
          "name": "",
          "type": "uint256"
        }
      ],
      "stateMutability": "view",
      "type": "function"
    },
    {
      "inputs": [
        {
          "internalType": "uint256",
          "name": "amount",
          "type": "uint256"
        }
      ],
      "name": "withdraw",
      "outputs": [],
      "stateMutability": "nonpayable",
      "type": "function"
    },
    {
      "inputs": [],
      "name": "withdrawAll",
      "outputs": [],
      "stateMutability": "nonpayable",
      "type": "function"
    },
    {
      "inputs": [],
      "name": "withdrawAllAndHarvest",
      "outputs": [],
      "stateMutability": "nonpayable",
      "type": "function"
    }
  ],
  "bytecode": "0x60e06040523480156200001157600080fd5b50604051620028aa380380620028aa83398101604081905262000034916200013c565b60016000556200004433620000cd565b6001600160a01b0397881660a052600280546001600160a01b0319908116988a1698909817905594871660c0526003805487169488169490941790935562093a8060075560058054861692871692909217909155600680548516918616919091179055600d80549093169190931617905515156080526001805460ff60a01b19169055620001ea565b600180546001600160a01b038381166001600160a01b0319831681179093556040519116919082907f8be0079c531659141344cd1fd0a4f28419497f9722a3daafe3b4186f6b6457e090600090a35050565b80516001600160a01b03811681146200013757600080fd5b919050565b600080600080600080600080610100898b0312156200015a57600080fd5b62000165896200011f565b97506200017560208a016200011f565b96506200018560408a016200011f565b95506200019560608a016200011f565b9450620001a560808a016200011f565b9350620001b560a08a016200011f565b925060c08901518015158114620001cb57600080fd5b9150620001db60e08a016200011f565b90509295985092959890939650565b60805160a05160c05161263562000275600039600081816103eb01528181610fb10152818161125d015281816112dd015281816117030152818161182c01528181611b360152611d2d0152600081816105d3015281816107f801528181610b5d01528181610bd201528181610c740152610e640152600081816105910152611cfd01526126356000f3fe608060405234801561001057600080fd5b50600436106102945760003560e01c80638da5cb5b11610167578063cd3daf9d116100ce578063df136d6511610087578063df136d6514610583578063e57482131461058c578063ebe2b12b146105b3578063f2fde38b146105bb578063f7c618c1146105ce578063f97d2114146105f557600080fd5b8063cd3daf9d14610533578063d00960101461053b578063d294f09314610543578063d883078014610560578063db2e21bc14610573578063de5f62681461057b57600080fd5b8063bbaaebf711610120578063bbaaebf7146104ba578063c00007b0146104cd578063c6c8f6b6146104e0578063c863657d146104f3578063c8f33c9114610506578063caa6fea41461050f57600080fd5b80638da5cb5b1461044857806391f25a941461045957806393975e701461046c578063b1534ecd1461048c578063b66503cf14610494578063b6b55f25146104a757600080fd5b806370a082311161020b57806380a476fe116101c457806380a476fe146103cb57806380faa57d146103de57806382bfefc8146103e6578063853828b61461040d578063863e2442146104155780638b8763471461042857600080fd5b806370a082311461036e578063715018a614610381578063770f8571146103895780637b0a47ee1461039c5780637c91e4eb146103a55780637f699015146103b857600080fd5b80632008883c1161025d5780632008883c1461031b5780632e1a7d4d14610330578063364af7c0146103435780633d18b912146103565780636946a2351461035e5780636e9852f21461036657600080fd5b80628cc2621461029957806303fbf83a146102bf5780630700037d146102ea57806318160ddd1461030a5780631be0528914610312575b600080fd5b6102ac6102a7366004612354565b610608565b6040519081526020015b60405180910390f35b6006546102d2906001600160a01b031681565b6040516001600160a01b0390911681526020016102b6565b6102ac6102f8366004612354565b600f6020526000908152604090205481565b6010546102ac565b6102ac60075481565b61032e610329366004612354565b610683565b005b61032e61033e366004612371565b6106ad565b61032e61035136600461238a565b6106b9565b61032e610769565b6102ac6108e9565b61032e610900565b6102ac61037c366004612354565b610919565b61032e610924565b6005546102d2906001600160a01b031681565b6102ac60095481565b6003546102d2906001600160a01b031681565b61032e6103c6366004612354565b610936565b600c546102d2906001600160a01b031681565b6102ac6109e5565b6102d27f000000000000000000000000000000000000000000000000000000000000000081565b61032e6109f3565b6004546102d2906001600160a01b031681565b6102ac610436366004612354565b600e6020526000908152604090205481565b6001546001600160a01b03166102d2565b61032e610467366004612354565b6109ff565b6102ac61047a366004612354565b60126020526000908152604090205481565b61032e610a29565b61032e6104a23660046123bf565b610aa3565b61032e6104b5366004612371565b610d8e565b600d546102d2906001600160a01b031681565b61032e6104db366004612354565b610d98565b61032e6104ee366004612371565b610f59565b6002546102d2906001600160a01b031681565b6102ac600a5481565b60015461052390600160a01b900460ff1681565b60405190151581526020016102b6565b6102ac611017565b61032e611078565b61054b6110f1565b604080519283526020830191909152016102b6565b61032e61056e366004612354565b611116565b61032e611162565b61032e6112c4565b6102ac600b5481565b6105237f000000000000000000000000000000000000000000000000000000000000000081565b6008546102ac565b61032e6105c9366004612354565b611356565b6102d27f000000000000000000000000000000000000000000000000000000000000000081565b61032e610603366004612354565b6113cc565b6001600160a01b0381166000908152600e6020526040812054670de0b6b3a764000090610633611017565b61063d9190612401565b61064684611440565b6106509190612418565b61065a9190612437565b6001600160a01b0383166000908152600f602052604090205461067d9190612459565b92915050565b61068b6114e6565b600d80546001600160a01b0319166001600160a01b0392909216919091179055565b6106b681611540565b50565b600c546001600160a01b031633146106ec5760405162461bcd60e51b81526004016106e390612471565b60405180910390fd5b6106f461176a565b6001600160a01b03831661072f5760405162461bcd60e51b81526020600482015260026024820152615a4160f01b60448201526064016106e3565b6000811161074f5760405162461bcd60e51b81526004016106e39061248d565b61075a8383836117c3565b6107646001600055565b505050565b61077161176a565b3361077a611017565b600b556107856109e5565b600a556001600160a01b038116156107cc576107a081610608565b6001600160a01b0382166000908152600f6020908152604080832093909355600b54600e909152919020555b336000908152600f6020526040902054801561085d57336000818152600f6020526040812055610827907f00000000000000000000000000000000000000000000000000000000000000006001600160a01b031690836118be565b60405181815233907fc9695243a805adb74c91f28311176c65b417e842d5699893cef56d18bfa48cba9060200160405180910390a25b6004546001600160a01b0316156108db576004546001600160a01b031663e23e6382338061088a81611440565b6040518463ffffffff1660e01b81526004016108a8939291906124a9565b600060405180830381600087803b1580156108c257600080fd5b505af11580156108d6573d6000803e3d6000fd5b505050505b50506108e76001600055565b565b60006007546009546108fb9190612418565b905090565b61091161090c33611440565b611540565b6108e7610769565b600061067d82611440565b61092c6114e6565b6108e76000611921565b61093e6114e6565b6001600160a01b0381166109795760405162461bcd60e51b81526020600482015260026024820152615a4160f01b60448201526064016106e3565b6003546001600160a01b03908116908216036109c35760405162461bcd60e51b815260206004820152600960248201526829a0a6a2afa0a2222960b91b60448201526064016106e3565b600380546001600160a01b0319166001600160a01b0392909216919091179055565b60006108fb42600854611973565b6108e761090c33611440565b610a076114e6565b600580546001600160a01b0319166001600160a01b0392909216919091179055565b610a316114e6565b60018054600160a01b900460ff16151514610a5e5760405162461bcd60e51b81526004016106e3906124cd565b6001805460ff60a01b1916905560405142815230907fa30763a9bc0d8e121a6e721624965cae68010ece74128b4ae5b01b8dc22c00f8906020015b60405180910390a2565b610aab61176a565b600154600160a01b900460ff1615610ad55760405162461bcd60e51b81526004016106e3906124cd565b6003546001600160a01b03163314610aff5760405162461bcd60e51b81526004016106e390612471565b6000610b09611017565b600b55610b146109e5565b600a556001600160a01b03811615610b5b57610b2f81610608565b6001600160a01b0382166000908152600f6020908152604080832093909355600b54600e909152919020555b7f00000000000000000000000000000000000000000000000000000000000000006001600160a01b0316836001600160a01b031614610bc15760405162461bcd60e51b8152602060048201526002602482015261494160f01b60448201526064016106e3565b600354610bfc906001600160a01b037f0000000000000000000000000000000000000000000000000000000000000000811691163085611989565b6008544210610c1a57600754610c129083612437565b600955610c5c565b600042600854610c2a9190612401565b9050600060095482610c3c9190612418565b600754909150610c4c8286612459565b610c569190612437565b60095550505b6040516370a0823160e01b81523060048201526000907f00000000000000000000000000000000000000000000000000000000000000006001600160a01b0316906370a0823190602401602060405180830381865afa158015610cc3573d6000803e3d6000fd5b505050506040513d601f19601f82011682018060405250810190610ce791906124eb565b905060075481610cf79190612437565b6009541115610d365760405162461bcd60e51b815260206004820152600b60248201526a0a48aae82a488be90928e960ab1b60448201526064016106e3565b42600a819055600754610d4891612459565b6008556040518381527fde88a922e0d3b88b24e9623efeb464919c6bf9f66857a65e2bfcf2ce87a9433d9060200160405180910390a15050610d8a6001600055565b5050565b6106b681336119b0565b610da061176a565b6003546001600160a01b03163314610dca5760405162461bcd60e51b81526004016106e390612471565b80610dd3611017565b600b55610dde6109e5565b600a556001600160a01b03811615610e2557610df981610608565b6001600160a01b0382166000908152600f6020908152604080832093909355600b54600e909152919020555b6001600160a01b0382166000908152600f60205260409020548015610ecf576001600160a01b038084166000908152600f6020526040812055610e8b907f00000000000000000000000000000000000000000000000000000000000000001684836118be565b826001600160a01b03167fc9695243a805adb74c91f28311176c65b417e842d5699893cef56d18bfa48cba82604051610ec691815260200190565b60405180910390a25b6004546001600160a01b031615610f4d576004546001600160a01b031663e23e63828480610efc81611440565b6040518463ffffffff1660e01b8152600401610f1a939291906124a9565b600060405180830381600087803b158015610f3457600080fd5b505af1158015610f48573d6000803e3d6000fd5b505050505b50506106b66001600055565b610f6161176a565b600154600160a01b900460ff16610f8a5760405162461bcd60e51b81526004016106e3906124cd565b80601054610f989190612401565b601055610fa481611bac565b610fd86001600160a01b037f00000000000000000000000000000000000000000000000000000000000000001633836118be565b60405181815233907f884edad9ce6fa2440d8a54cc123490eb96d2768479d49ff9c7366125a94243649060200160405180910390a26106b66001600055565b600060105460000361102a5750600b5490565b601054600954600a5461103b6109e5565b6110459190612401565b61104f9190612418565b61106190670de0b6b3a7640000612418565b61106b9190612437565b600b546108fb9190612459565b6110806114e6565b600154600160a01b900460ff16156110aa5760405162461bcd60e51b81526004016106e3906124cd565b6001805460ff60a01b1916600160a01b17905560405130907f774b57c3410c76d04ea4d51b0c15a9bac99b0e70f28fd88b53d702b5427fd31890610a999042815260200190565b6000806110fc61176a565b611104611cf8565b915091506111126001600055565b9091565b600d546001600160a01b031633146111405760405162461bcd60e51b81526004016106e390612471565b600c80546001600160a01b0319166001600160a01b0392909216919091179055565b61116a61176a565b600154600160a01b900460ff166111935760405162461bcd60e51b81526004016106e3906124cd565b600061119e33611440565b9050600081116111c05760405162461bcd60e51b81526004016106e39061248d565b806010546111ce9190612401565b60105533600090815260116020526040812055600c546001600160a01b03161561125057600c5460405163bae50ef760e01b81523360048201526001600160a01b039091169063bae50ef790602401600060405180830381600087803b15801561123757600080fd5b505af115801561124b573d6000803e3d6000fd5b505050505b6112846001600160a01b037f00000000000000000000000000000000000000000000000000000000000000001633836118be565b60405181815233907f884edad9ce6fa2440d8a54cc123490eb96d2768479d49ff9c7366125a94243649060200160405180910390a2506108e76001600055565b6040516370a0823160e01b81523360048201526108e7907f00000000000000000000000000000000000000000000000000000000000000006001600160a01b0316906370a0823190602401602060405180830381865afa15801561132c573d6000803e3d6000fd5b505050506040513d601f19601f8201168201806040525081019061135091906124eb565b336119b0565b61135e6114e6565b6001600160a01b0381166113c35760405162461bcd60e51b815260206004820152602660248201527f4f776e61626c653a206e6577206f776e657220697320746865207a65726f206160448201526564647265737360d01b60648201526084016106e3565b6106b681611921565b6113d46114e6565b6004546001600160a01b039081169082160361141e5760405162461bcd60e51b815260206004820152600960248201526829a0a6a2afa0a2222960b91b60448201526064016106e3565b600480546001600160a01b0319166001600160a01b0392909216919091179055565b6001600160a01b03808216600090815260116020526040812054600c5491929091161561067d57600c546040516370a0823160e01b81526001600160a01b038581166004830152909116906370a0823190602401602060405180830381865afa1580156114b1573d6000803e3d6000fd5b505050506040513d601f19601f820116820180604052508101906114d591906124eb565b6114df9082612459565b9392505050565b6001546001600160a01b031633146108e75760405162461bcd60e51b815260206004820181905260248201527f4f776e61626c653a2063616c6c6572206973206e6f7420746865206f776e657260448201526064016106e3565b61154861176a565b600154600160a01b900460ff16156115725760405162461bcd60e51b81526004016106e3906124cd565b3361157b611017565b600b556115866109e5565b600a556001600160a01b038116156115cd576115a181610608565b6001600160a01b0382166000908152600f6020908152604080832093909355600b54600e909152919020555b600082116115ed5760405162461bcd60e51b81526004016106e39061248d565b60006115f833611440565b116116155760405162461bcd60e51b81526004016106e39061248d565b3360009081526012602052604090205442101561165e5760405162461bcd60e51b8152602060048201526007602482015266214d415455524560c81b60448201526064016106e3565b8160105461166c9190612401565b60105561167882611bac565b6004546001600160a01b0316156116f6576004546001600160a01b031663e23e638233806116a581611440565b6040518463ffffffff1660e01b81526004016116c3939291906124a9565b600060405180830381600087803b1580156116dd57600080fd5b505af11580156116f1573d6000803e3d6000fd5b505050505b61172a6001600160a01b037f00000000000000000000000000000000000000000000000000000000000000001633846118be565b60405182815233907f884edad9ce6fa2440d8a54cc123490eb96d2768479d49ff9c7366125a94243649060200160405180910390a2506106b66001600055565b6002600054036117bc5760405162461bcd60e51b815260206004820152601f60248201527f5265656e7472616e637947756172643a207265656e7472616e742063616c6c0060448201526064016106e3565b6002600055565b60006117cd611017565b600b556117d86109e5565b600a556001600160a01b0381161561181f576117f381610608565b6001600160a01b0382166000908152600f6020908152604080832093909355600b54600e909152919020555b6118546001600160a01b037f000000000000000000000000000000000000000000000000000000000000000016333085611989565b816010546118629190612459565b6010556001600160a01b038416600081815260126020908152604091829020869055815192835282018490527ee69b74a89ed93e55481c0d61592528f59e3021b81d12572d473963df818701910160405180910390a150505050565b6040516001600160a01b03831660248201526044810182905261076490849063a9059cbb60e01b906064015b60408051601f198184030181529190526020810180516001600160e01b03166001600160e01b031990931692909217909152611fc5565b600180546001600160a01b038381166001600160a01b0319831681179093556040519116919082907f8be0079c531659141344cd1fd0a4f28419497f9722a3daafe3b4186f6b6457e090600090a35050565b600081831061198257816114df565b5090919050565b6119aa846323b872dd60e01b8585856040516024016118ea939291906124a9565b50505050565b6119b861176a565b600154600160a01b900460ff16156119e25760405162461bcd60e51b81526004016106e3906124cd565b806119eb611017565b600b556119f66109e5565b600a556001600160a01b03811615611a3d57611a1181610608565b6001600160a01b0382166000908152600f6020908152604080832093909355600b54600e909152919020555b60008311611a5d5760405162461bcd60e51b81526004016106e39061248d565b6001600160a01b038216600090815260116020526040902054611a81908490612459565b6001600160a01b038316600090815260116020526040902055601054611aa8908490612459565b6010556004546001600160a01b031615611b29576004546001600160a01b031663e23e63828380611ad881611440565b6040518463ffffffff1660e01b8152600401611af6939291906124a9565b600060405180830381600087803b158015611b1057600080fd5b505af1158015611b24573d6000803e3d6000fd5b505050505b611b5e6001600160a01b037f000000000000000000000000000000000000000000000000000000000000000016833086611989565b816001600160a01b03167fe1fffcc4923d04b559f4d29a8bfc6cda04eb5b0d3c460751c2402c5c5cc9109c84604051611b9991815260200190565b60405180910390a250610d8a6001600055565b600c546000906001600160a01b031615611c2f57600c546040516370a0823160e01b81523360048201526001600160a01b03909116906370a0823190602401602060405180830381865afa158015611c08573d6000803e3d6000fd5b505050506040513d601f19601f82011682018060405250810190611c2c91906124eb565b90505b600082821115611c3f5782611c41565b815b90506000611c4f8285612401565b33600090815260116020526040902054909150611c6d908290612401565b33600090815260116020526040902055600c546001600160a01b0316156119aa57600c546040516322b42c4f60e01b8152336004820152602481018490526001600160a01b03909116906322b42c4f90604401600060405180830381600087803b158015611cda57600080fd5b505af1158015611cee573d6000803e3d6000fd5b5050505050505050565b6000807f0000000000000000000000000000000000000000000000000000000000000000611d295750600091829150565b60007f00000000000000000000000000000000000000000000000000000000000000009050806001600160a01b031663d294f0936040518163ffffffff1660e01b815260040160408051808303816000875af1158015611d8d573d6000803e3d6000fd5b505050506040513d601f19601f82011682018060405250810190611db19190612504565b909350915082151580611dc45750600082115b15611fc05760008390506000839050600080846001600160a01b0316639d63848a6040518163ffffffff1660e01b81526004016040805180830381865afa158015611e13573d6000803e3d6000fd5b505050506040513d601f19601f82011682018060405250810190611e379190612528565b90925090508315611ede57600554611e5d906001600160a01b038481169116600061209a565b600554611e77906001600160a01b0384811691168661209a565b60055460405163b66503cf60e01b81526001600160a01b038481166004830152602482018790529091169063b66503cf90604401600060405180830381600087803b158015611ec557600080fd5b505af1158015611ed9573d6000803e3d6000fd5b505050505b8215611f8057600554611eff906001600160a01b038381169116600061209a565b600554611f19906001600160a01b0383811691168561209a565b60055460405163b66503cf60e01b81526001600160a01b038381166004830152602482018690529091169063b66503cf90604401600060405180830381600087803b158015611f6757600080fd5b505af1158015611f7b573d6000803e3d6000fd5b505050505b604080518881526020810188905233917fbc567d6cbad26368064baa0ab5a757be46aae4d70f707f9203d9d9b6c8ccbfa3910160405180910390a2505050505b509091565b600061201a826040518060400160405280602081526020017f5361666545524332303a206c6f772d6c6576656c2063616c6c206661696c6564815250856001600160a01b03166121af9092919063ffffffff16565b905080516000148061203b57508080602001905181019061203b9190612562565b6107645760405162461bcd60e51b815260206004820152602a60248201527f5361666545524332303a204552433230206f7065726174696f6e20646964206e6044820152691bdd081cdd58d8d9595960b21b60648201526084016106e3565b8015806121145750604051636eb1769f60e11b81523060048201526001600160a01b03838116602483015284169063dd62ed3e90604401602060405180830381865afa1580156120ee573d6000803e3d6000fd5b505050506040513d601f19601f8201168201806040525081019061211291906124eb565b155b61217f5760405162461bcd60e51b815260206004820152603660248201527f5361666545524332303a20617070726f76652066726f6d206e6f6e2d7a65726f60448201527520746f206e6f6e2d7a65726f20616c6c6f77616e636560501b60648201526084016106e3565b6040516001600160a01b03831660248201526044810182905261076490849063095ea7b360e01b906064016118ea565b60606121be84846000856121c6565b949350505050565b6060824710156122275760405162461bcd60e51b815260206004820152602660248201527f416464726573733a20696e73756666696369656e742062616c616e636520666f6044820152651c8818d85b1b60d21b60648201526084016106e3565b600080866001600160a01b0316858760405161224391906125b0565b60006040518083038185875af1925050503d8060008114612280576040519150601f19603f3d011682016040523d82523d6000602084013e612285565b606091505b5091509150612296878383876122a1565b979650505050505050565b60608315612310578251600003612309576001600160a01b0385163b6123095760405162461bcd60e51b815260206004820152601d60248201527f416464726573733a2063616c6c20746f206e6f6e2d636f6e747261637400000060448201526064016106e3565b50816121be565b6121be83838151156123255781518083602001fd5b8060405162461bcd60e51b81526004016106e391906125cc565b6001600160a01b03811681146106b657600080fd5b60006020828403121561236657600080fd5b81356114df8161233f565b60006020828403121561238357600080fd5b5035919050565b60008060006060848603121561239f57600080fd5b83356123aa8161233f565b95602085013595506040909401359392505050565b600080604083850312156123d257600080fd5b82356123dd8161233f565b946020939093013593505050565b634e487b7160e01b600052601160045260246000fd5b600082821015612413576124136123eb565b500390565b6000816000190483118215151615612432576124326123eb565b500290565b60008261245457634e487b7160e01b600052601260045260246000fd5b500490565b6000821982111561246c5761246c6123eb565b500190565b6020808252600290820152614e4160f01b604082015260600190565b6020808252600290820152612d2b60f11b604082015260600190565b6001600160a01b039384168152919092166020820152604081019190915260600190565b60208082526004908201526322a6a2a960e11b604082015260600190565b6000602082840312156124fd57600080fd5b5051919050565b6000806040838503121561251757600080fd5b505080516020909101519092909150565b6000806040838503121561253b57600080fd5b82516125468161233f565b60208401519092506125578161233f565b809150509250929050565b60006020828403121561257457600080fd5b815180151581146114df57600080fd5b60005b8381101561259f578181015183820152602001612587565b838111156119aa5750506000910152565b600082516125c2818460208701612584565b9190910192915050565b60208152600082518060208401526125eb816040850160208701612584565b601f01601f1916919091016040019291505056fea2646970667358221220baa85369e0beb93c9e44631bbe3d1ec025498dedf5f223850bf0f2eda8b5e40c64736f6c634300080d0033",
  "linkReferences": {},
  "deployedLinkReferences": {}
}