{
  "_format": "hh-sol-artifact-1",
  "contractName": "RouterV2",
  "sourceName": "contracts/RouterV2.sol",
  "abi": [
    {
      "inputs": [
        {
          "internalType": "address",
          "name": "_factory",
          "type": "address"
        },
        {
          "internalType": "address",
          "name": "_wETH",
          "type": "address"
        },
        {
          "internalType": "address",
          "name": "_swapRouter",
          "type": "address"
        },
        {
          "internalType": "address",
          "name": "_algebraFactory",
          "type": "address"
        },
        {
          "internalType": "address",
          "name": "_algebraPoolAPIStorage",
          "type": "address"
        },
        {
          "internalType": "address",
          "name": "_routerHelper",
          "type": "address"
        }
      ],
      "stateMutability": "nonpayable",
      "type": "constructor"
    },
    {
      "anonymous": false,
      "inputs": [
        {
          "indexed": true,
          "internalType": "address",
          "name": "previousOwner",
          "type": "address"
        },
        {
          "indexed": true,
          "internalType": "address",
          "name": "newOwner",
          "type": "address"
        }
      ],
      "name": "OwnershipTransferred",
      "type": "event"
    },
    {
      "anonymous": false,
      "inputs": [
        {
          "indexed": true,
          "internalType": "address",
          "name": "sender",
          "type": "address"
        },
        {
          "indexed": false,
          "internalType": "uint256",
          "name": "amount0In",
          "type": "uint256"
        },
        {
          "indexed": false,
          "internalType": "uint256",
          "name": "amount0Out",
          "type": "uint256"
        },
        {
          "indexed": false,
          "internalType": "address",
          "name": "_tokenIn",
          "type": "address"
        },
        {
          "indexed": true,
          "internalType": "address",
          "name": "to",
          "type": "address"
        },
        {
          "indexed": false,
          "internalType": "bool",
          "name": "stable",
          "type": "bool"
        }
      ],
      "name": "Swap",
      "type": "event"
    },
    {
      "inputs": [
        {
          "internalType": "uint256[]",
          "name": "amounts",
          "type": "uint256[]"
        },
        {
          "components": [
            {
              "internalType": "address",
              "name": "pair",
              "type": "address"
            },
            {
              "internalType": "address",
              "name": "from",
              "type": "address"
            },
            {
              "internalType": "address",
              "name": "to",
              "type": "address"
            },
            {
              "internalType": "bool",
              "name": "stable",
              "type": "bool"
            },
            {
              "internalType": "bool",
              "name": "concentrated",
              "type": "bool"
            },
            {
              "internalType": "address",
              "name": "receiver",
              "type": "address"
            }
          ],
          "internalType": "struct IRouter.route[]",
          "name": "routes",
          "type": "tuple[]"
        },
        {
          "internalType": "address",
          "name": "to",
          "type": "address"
        },
        {
          "internalType": "uint256",
          "name": "deadline",
          "type": "uint256"
        }
      ],
      "name": "UNSAFE_swapExactTokensForTokens",
      "outputs": [
        {
          "internalType": "uint256[]",
          "name": "",
          "type": "uint256[]"
        }
      ],
      "stateMutability": "nonpayable",
      "type": "function"
    },
    {
      "inputs": [
        {
          "internalType": "address",
          "name": "tokenA",
          "type": "address"
        },
        {
          "internalType": "address",
          "name": "tokenB",
          "type": "address"
        },
        {
          "internalType": "bool",
          "name": "stable",
          "type": "bool"
        },
        {
          "internalType": "uint256",
          "name": "amountADesired",
          "type": "uint256"
        },
        {
          "internalType": "uint256",
          "name": "amountBDesired",
          "type": "uint256"
        },
        {
          "internalType": "uint256",
          "name": "amountAMin",
          "type": "uint256"
        },
        {
          "internalType": "uint256",
          "name": "amountBMin",
          "type": "uint256"
        },
        {
          "internalType": "address",
          "name": "to",
          "type": "address"
        },
        {
          "internalType": "uint256",
          "name": "deadline",
          "type": "uint256"
        }
      ],
      "name": "addLiquidity",
      "outputs": [
        {
          "internalType": "uint256",
          "name": "amountA",
          "type": "uint256"
        },
        {
          "internalType": "uint256",
          "name": "amountB",
          "type": "uint256"
        },
        {
          "internalType": "uint256",
          "name": "liquidity",
          "type": "uint256"
        }
      ],
      "stateMutability": "nonpayable",
      "type": "function"
    },
    {
      "inputs": [
        {
          "internalType": "address",
          "name": "token",
          "type": "address"
        },
        {
          "internalType": "bool",
          "name": "stable",
          "type": "bool"
        },
        {
          "internalType": "uint256",
          "name": "amountTokenDesired",
          "type": "uint256"
        },
        {
          "internalType": "uint256",
          "name": "amountTokenMin",
          "type": "uint256"
        },
        {
          "internalType": "uint256",
          "name": "amountETHMin",
          "type": "uint256"
        },
        {
          "internalType": "address",
          "name": "to",
          "type": "address"
        },
        {
          "internalType": "uint256",
          "name": "deadline",
          "type": "uint256"
        }
      ],
      "name": "addLiquidityETH",
      "outputs": [
        {
          "internalType": "uint256",
          "name": "amountToken",
          "type": "uint256"
        },
        {
          "internalType": "uint256",
          "name": "amountETH",
          "type": "uint256"
        },
        {
          "internalType": "uint256",
          "name": "liquidity",
          "type": "uint256"
        }
      ],
      "stateMutability": "payable",
      "type": "function"
    },
    {
      "inputs": [],
      "name": "algebraFactory",
      "outputs": [
        {
          "internalType": "contract IAlgebraCLFactory",
          "name": "",
          "type": "address"
        }
      ],
      "stateMutability": "view",
      "type": "function"
    },
    {
      "inputs": [],
      "name": "algebraPoolAPIStorage",
      "outputs": [
        {
          "internalType": "contract IAlgebraPoolAPIStorage",
          "name": "",
          "type": "address"
        }
      ],
      "stateMutability": "view",
      "type": "function"
    },
    {
      "inputs": [],
      "name": "factory",
      "outputs": [
        {
          "internalType": "address",
          "name": "",
          "type": "address"
        }
      ],
      "stateMutability": "view",
      "type": "function"
    },
    {
      "inputs": [
        {
          "internalType": "uint256",
          "name": "amountIn",
          "type": "uint256"
        },
        {
          "internalType": "address",
          "name": "tokenIn",
          "type": "address"
        },
        {
          "internalType": "address",
          "name": "pair",
          "type": "address"
        }
      ],
      "name": "getPoolAmountOut",
      "outputs": [
        {
          "internalType": "uint256",
          "name": "amount",
          "type": "uint256"
        }
      ],
      "stateMutability": "view",
      "type": "function"
    },
    {
      "inputs": [
        {
          "internalType": "address",
          "name": "tokenA",
          "type": "address"
        },
        {
          "internalType": "address",
          "name": "tokenB",
          "type": "address"
        },
        {
          "internalType": "bool",
          "name": "stable",
          "type": "bool"
        }
      ],
      "name": "getReserves",
      "outputs": [
        {
          "internalType": "uint256",
          "name": "reserveA",
          "type": "uint256"
        },
        {
          "internalType": "uint256",
          "name": "reserveB",
          "type": "uint256"
        }
      ],
      "stateMutability": "view",
      "type": "function"
    },
    {
      "inputs": [],
      "name": "owner",
      "outputs": [
        {
          "internalType": "address",
          "name": "",
          "type": "address"
        }
      ],
      "stateMutability": "view",
      "type": "function"
    },
    {
      "inputs": [
        {
          "internalType": "address",
          "name": "tokenA",
          "type": "address"
        },
        {
          "internalType": "address",
          "name": "tokenB",
          "type": "address"
        },
        {
          "internalType": "bool",
          "name": "stable",
          "type": "bool"
        }
      ],
      "name": "pairFor",
      "outputs": [
        {
          "internalType": "address",
          "name": "pair",
          "type": "address"
        }
      ],
      "stateMutability": "view",
      "type": "function"
    },
    {
      "inputs": [
        {
          "internalType": "address",
          "name": "tokenA",
          "type": "address"
        },
        {
          "internalType": "address",
          "name": "tokenB",
          "type": "address"
        },
        {
          "internalType": "bool",
          "name": "stable",
          "type": "bool"
        },
        {
          "internalType": "uint256",
          "name": "amountADesired",
          "type": "uint256"
        },
        {
          "internalType": "uint256",
          "name": "amountBDesired",
          "type": "uint256"
        }
      ],
      "name": "quoteAddLiquidity",
      "outputs": [
        {
          "internalType": "uint256",
          "name": "amountA",
          "type": "uint256"
        },
        {
          "internalType": "uint256",
          "name": "amountB",
          "type": "uint256"
        },
        {
          "internalType": "uint256",
          "name": "liquidity",
          "type": "uint256"
        }
      ],
      "stateMutability": "view",
      "type": "function"
    },
    {
      "inputs": [
        {
          "internalType": "address",
          "name": "tokenA",
          "type": "address"
        },
        {
          "internalType": "address",
          "name": "tokenB",
          "type": "address"
        },
        {
          "internalType": "bool",
          "name": "stable",
          "type": "bool"
        },
        {
          "internalType": "uint256",
          "name": "liquidity",
          "type": "uint256"
        }
      ],
      "name": "quoteRemoveLiquidity",
      "outputs": [
        {
          "internalType": "uint256",
          "name": "amountA",
          "type": "uint256"
        },
        {
          "internalType": "uint256",
          "name": "amountB",
          "type": "uint256"
        }
      ],
      "stateMutability": "view",
      "type": "function"
    },
    {
      "inputs": [
        {
          "internalType": "address",
          "name": "tokenA",
          "type": "address"
        },
        {
          "internalType": "address",
          "name": "tokenB",
          "type": "address"
        },
        {
          "internalType": "bool",
          "name": "stable",
          "type": "bool"
        },
        {
          "internalType": "uint256",
          "name": "liquidity",
          "type": "uint256"
        },
        {
          "internalType": "uint256",
          "name": "amountAMin",
          "type": "uint256"
        },
        {
          "internalType": "uint256",
          "name": "amountBMin",
          "type": "uint256"
        },
        {
          "internalType": "address",
          "name": "to",
          "type": "address"
        },
        {
          "internalType": "uint256",
          "name": "deadline",
          "type": "uint256"
        }
      ],
      "name": "removeLiquidity",
      "outputs": [
        {
          "internalType": "uint256",
          "name": "amountA",
          "type": "uint256"
        },
        {
          "internalType": "uint256",
          "name": "amountB",
          "type": "uint256"
        }
      ],
      "stateMutability": "nonpayable",
      "type": "function"
    },
    {
      "inputs": [
        {
          "internalType": "address",
          "name": "token",
          "type": "address"
        },
        {
          "internalType": "bool",
          "name": "stable",
          "type": "bool"
        },
        {
          "internalType": "uint256",
          "name": "liquidity",
          "type": "uint256"
        },
        {
          "internalType": "uint256",
          "name": "amountTokenMin",
          "type": "uint256"
        },
        {
          "internalType": "uint256",
          "name": "amountETHMin",
          "type": "uint256"
        },
        {
          "internalType": "address",
          "name": "to",
          "type": "address"
        },
        {
          "internalType": "uint256",
          "name": "deadline",
          "type": "uint256"
        }
      ],
      "name": "removeLiquidityETH",
      "outputs": [
        {
          "internalType": "uint256",
          "name": "amountToken",
          "type": "uint256"
        },
        {
          "internalType": "uint256",
          "name": "amountETH",
          "type": "uint256"
        }
      ],
      "stateMutability": "nonpayable",
      "type": "function"
    },
    {
      "inputs": [
        {
          "internalType": "address",
          "name": "token",
          "type": "address"
        },
        {
          "internalType": "bool",
          "name": "stable",
          "type": "bool"
        },
        {
          "internalType": "uint256",
          "name": "liquidity",
          "type": "uint256"
        },
        {
          "internalType": "uint256",
          "name": "amountTokenMin",
          "type": "uint256"
        },
        {
          "internalType": "uint256",
          "name": "amountETHMin",
          "type": "uint256"
        },
        {
          "internalType": "address",
          "name": "to",
          "type": "address"
        },
        {
          "internalType": "uint256",
          "name": "deadline",
          "type": "uint256"
        }
      ],
      "name": "removeLiquidityETHSupportingFeeOnTransferTokens",
      "outputs": [
        {
          "internalType": "uint256",
          "name": "amountToken",
          "type": "uint256"
        },
        {
          "internalType": "uint256",
          "name": "amountETH",
          "type": "uint256"
        }
      ],
      "stateMutability": "nonpayable",
      "type": "function"
    },
    {
      "inputs": [
        {
          "internalType": "address",
          "name": "token",
          "type": "address"
        },
        {
          "internalType": "bool",
          "name": "stable",
          "type": "bool"
        },
        {
          "internalType": "uint256",
          "name": "liquidity",
          "type": "uint256"
        },
        {
          "internalType": "uint256",
          "name": "amountTokenMin",
          "type": "uint256"
        },
        {
          "internalType": "uint256",
          "name": "amountETHMin",
          "type": "uint256"
        },
        {
          "internalType": "address",
          "name": "to",
          "type": "address"
        },
        {
          "internalType": "uint256",
          "name": "deadline",
          "type": "uint256"
        },
        {
          "internalType": "bool",
          "name": "approveMax",
          "type": "bool"
        },
        {
          "internalType": "uint8",
          "name": "v",
          "type": "uint8"
        },
        {
          "internalType": "bytes32",
          "name": "r",
          "type": "bytes32"
        },
        {
          "internalType": "bytes32",
          "name": "s",
          "type": "bytes32"
        }
      ],
      "name": "removeLiquidityETHWithPermit",
      "outputs": [
        {
          "internalType": "uint256",
          "name": "amountToken",
          "type": "uint256"
        },
        {
          "internalType": "uint256",
          "name": "amountETH",
          "type": "uint256"
        }
      ],
      "stateMutability": "nonpayable",
      "type": "function"
    },
    {
      "inputs": [
        {
          "internalType": "address",
          "name": "token",
          "type": "address"
        },
        {
          "internalType": "bool",
          "name": "stable",
          "type": "bool"
        },
        {
          "internalType": "uint256",
          "name": "liquidity",
          "type": "uint256"
        },
        {
          "internalType": "uint256",
          "name": "amountTokenMin",
          "type": "uint256"
        },
        {
          "internalType": "uint256",
          "name": "amountETHMin",
          "type": "uint256"
        },
        {
          "internalType": "address",
          "name": "to",
          "type": "address"
        },
        {
          "internalType": "uint256",
          "name": "deadline",
          "type": "uint256"
        },
        {
          "internalType": "bool",
          "name": "approveMax",
          "type": "bool"
        },
        {
          "internalType": "uint8",
          "name": "v",
          "type": "uint8"
        },
        {
          "internalType": "bytes32",
          "name": "r",
          "type": "bytes32"
        },
        {
          "internalType": "bytes32",
          "name": "s",
          "type": "bytes32"
        }
      ],
      "name": "removeLiquidityETHWithPermitSupportingFeeOnTransferTokens",
      "outputs": [
        {
          "internalType": "uint256",
          "name": "amountToken",
          "type": "uint256"
        },
        {
          "internalType": "uint256",
          "name": "amountETH",
          "type": "uint256"
        }
      ],
      "stateMutability": "nonpayable",
      "type": "function"
    },
    {
      "inputs": [
        {
          "internalType": "address",
          "name": "tokenA",
          "type": "address"
        },
        {
          "internalType": "address",
          "name": "tokenB",
          "type": "address"
        },
        {
          "internalType": "bool",
          "name": "stable",
          "type": "bool"
        },
        {
          "internalType": "uint256",
          "name": "liquidity",
          "type": "uint256"
        },
        {
          "internalType": "uint256",
          "name": "amountAMin",
          "type": "uint256"
        },
        {
          "internalType": "uint256",
          "name": "amountBMin",
          "type": "uint256"
        },
        {
          "internalType": "address",
          "name": "to",
          "type": "address"
        },
        {
          "internalType": "uint256",
          "name": "deadline",
          "type": "uint256"
        },
        {
          "internalType": "bool",
          "name": "approveMax",
          "type": "bool"
        },
        {
          "internalType": "uint8",
          "name": "v",
          "type": "uint8"
        },
        {
          "internalType": "bytes32",
          "name": "r",
          "type": "bytes32"
        },
        {
          "internalType": "bytes32",
          "name": "s",
          "type": "bytes32"
        }
      ],
      "name": "removeLiquidityWithPermit",
      "outputs": [
        {
          "internalType": "uint256",
          "name": "amountA",
          "type": "uint256"
        },
        {
          "internalType": "uint256",
          "name": "amountB",
          "type": "uint256"
        }
      ],
      "stateMutability": "nonpayable",
      "type": "function"
    },
    {
      "inputs": [],
      "name": "renounceOwnership",
      "outputs": [],
      "stateMutability": "nonpayable",
      "type": "function"
    },
    {
      "inputs": [],
      "name": "routerHelper",
      "outputs": [
        {
          "internalType": "address",
          "name": "",
          "type": "address"
        }
      ],
      "stateMutability": "view",
      "type": "function"
    },
    {
      "inputs": [
        {
          "internalType": "address",
          "name": "_algebraFactory",
          "type": "address"
        }
      ],
      "name": "setAlgebraFactory",
      "outputs": [],
      "stateMutability": "nonpayable",
      "type": "function"
    },
    {
      "inputs": [
        {
          "internalType": "address",
          "name": "_algebraPoolAPIStorage",
          "type": "address"
        }
      ],
      "name": "setAlgebraPoolAPI",
      "outputs": [],
      "stateMutability": "nonpayable",
      "type": "function"
    },
    {
      "inputs": [
        {
          "internalType": "address",
          "name": "_routerHelper",
          "type": "address"
        }
      ],
      "name": "setRouterHelper",
      "outputs": [],
      "stateMutability": "nonpayable",
      "type": "function"
    },
    {
      "inputs": [
        {
          "internalType": "address",
          "name": "_swapRouter",
          "type": "address"
        }
      ],
      "name": "setSwapRouter",
      "outputs": [],
      "stateMutability": "nonpayable",
      "type": "function"
    },
    {
      "inputs": [
        {
          "internalType": "address",
          "name": "_wETH",
          "type": "address"
        }
      ],
      "name": "setWeTH",
      "outputs": [],
      "stateMutability": "nonpayable",
      "type": "function"
    },
    {
      "inputs": [
        {
          "internalType": "address",
          "name": "tokenA",
          "type": "address"
        },
        {
          "internalType": "address",
          "name": "tokenB",
          "type": "address"
        }
      ],
      "name": "sortTokens",
      "outputs": [
        {
          "internalType": "address",
          "name": "token0",
          "type": "address"
        },
        {
          "internalType": "address",
          "name": "token1",
          "type": "address"
        }
      ],
      "stateMutability": "pure",
      "type": "function"
    },
    {
      "inputs": [
        {
          "internalType": "uint256",
          "name": "amountOutMin",
          "type": "uint256"
        },
        {
          "components": [
            {
              "internalType": "address",
              "name": "pair",
              "type": "address"
            },
            {
              "internalType": "address",
              "name": "from",
              "type": "address"
            },
            {
              "internalType": "address",
              "name": "to",
              "type": "address"
            },
            {
              "internalType": "bool",
              "name": "stable",
              "type": "bool"
            },
            {
              "internalType": "bool",
              "name": "concentrated",
              "type": "bool"
            },
            {
              "internalType": "address",
              "name": "receiver",
              "type": "address"
            }
          ],
          "internalType": "struct IRouter.route[]",
          "name": "routes",
          "type": "tuple[]"
        },
        {
          "internalType": "address",
          "name": "to",
          "type": "address"
        },
        {
          "internalType": "uint256",
          "name": "deadline",
          "type": "uint256"
        }
      ],
      "name": "swapExactETHForTokens",
      "outputs": [
        {
          "internalType": "uint256[]",
          "name": "amounts",
          "type": "uint256[]"
        }
      ],
      "stateMutability": "payable",
      "type": "function"
    },
    {
      "inputs": [
        {
          "internalType": "uint256",
          "name": "amountOutMin",
          "type": "uint256"
        },
        {
          "components": [
            {
              "internalType": "address",
              "name": "pair",
              "type": "address"
            },
            {
              "internalType": "address",
              "name": "from",
              "type": "address"
            },
            {
              "internalType": "address",
              "name": "to",
              "type": "address"
            },
            {
              "internalType": "bool",
              "name": "stable",
              "type": "bool"
            },
            {
              "internalType": "bool",
              "name": "concentrated",
              "type": "bool"
            },
            {
              "internalType": "address",
              "name": "receiver",
              "type": "address"
            }
          ],
          "internalType": "struct IRouter.route[]",
          "name": "routes",
          "type": "tuple[]"
        },
        {
          "internalType": "address",
          "name": "to",
          "type": "address"
        },
        {
          "internalType": "uint256",
          "name": "deadline",
          "type": "uint256"
        }
      ],
      "name": "swapExactETHForTokensSupportingFeeOnTransferTokens",
      "outputs": [],
      "stateMutability": "payable",
      "type": "function"
    },
    {
      "inputs": [
        {
          "internalType": "uint256",
          "name": "amountIn",
          "type": "uint256"
        },
        {
          "internalType": "uint256",
          "name": "amountOutMin",
          "type": "uint256"
        },
        {
          "components": [
            {
              "internalType": "address",
              "name": "pair",
              "type": "address"
            },
            {
              "internalType": "address",
              "name": "from",
              "type": "address"
            },
            {
              "internalType": "address",
              "name": "to",
              "type": "address"
            },
            {
              "internalType": "bool",
              "name": "stable",
              "type": "bool"
            },
            {
              "internalType": "bool",
              "name": "concentrated",
              "type": "bool"
            },
            {
              "internalType": "address",
              "name": "receiver",
              "type": "address"
            }
          ],
          "internalType": "struct IRouter.route[]",
          "name": "routes",
          "type": "tuple[]"
        },
        {
          "internalType": "address",
          "name": "to",
          "type": "address"
        },
        {
          "internalType": "uint256",
          "name": "deadline",
          "type": "uint256"
        }
      ],
      "name": "swapExactTokensForETH",
      "outputs": [
        {
          "internalType": "uint256[]",
          "name": "amounts",
          "type": "uint256[]"
        }
      ],
      "stateMutability": "nonpayable",
      "type": "function"
    },
    {
      "inputs": [
        {
          "internalType": "uint256",
          "name": "amountIn",
          "type": "uint256"
        },
        {
          "internalType": "uint256",
          "name": "amountOutMin",
          "type": "uint256"
        },
        {
          "components": [
            {
              "internalType": "address",
              "name": "pair",
              "type": "address"
            },
            {
              "internalType": "address",
              "name": "from",
              "type": "address"
            },
            {
              "internalType": "address",
              "name": "to",
              "type": "address"
            },
            {
              "internalType": "bool",
              "name": "stable",
              "type": "bool"
            },
            {
              "internalType": "bool",
              "name": "concentrated",
              "type": "bool"
            },
            {
              "internalType": "address",
              "name": "receiver",
              "type": "address"
            }
          ],
          "internalType": "struct IRouter.route[]",
          "name": "routes",
          "type": "tuple[]"
        },
        {
          "internalType": "address",
          "name": "to",
          "type": "address"
        },
        {
          "internalType": "uint256",
          "name": "deadline",
          "type": "uint256"
        }
      ],
      "name": "swapExactTokensForETHSupportingFeeOnTransferTokens",
      "outputs": [],
      "stateMutability": "nonpayable",
      "type": "function"
    },
    {
      "inputs": [
        {
          "internalType": "uint256",
          "name": "amountIn",
          "type": "uint256"
        },
        {
          "internalType": "uint256",
          "name": "amountOutMin",
          "type": "uint256"
        },
        {
          "components": [
            {
              "internalType": "address",
              "name": "pair",
              "type": "address"
            },
            {
              "internalType": "address",
              "name": "from",
              "type": "address"
            },
            {
              "internalType": "address",
              "name": "to",
              "type": "address"
            },
            {
              "internalType": "bool",
              "name": "stable",
              "type": "bool"
            },
            {
              "internalType": "bool",
              "name": "concentrated",
              "type": "bool"
            },
            {
              "internalType": "address",
              "name": "receiver",
              "type": "address"
            }
          ],
          "internalType": "struct IRouter.route[]",
          "name": "routes",
          "type": "tuple[]"
        },
        {
          "internalType": "address",
          "name": "to",
          "type": "address"
        },
        {
          "internalType": "uint256",
          "name": "deadline",
          "type": "uint256"
        }
      ],
      "name": "swapExactTokensForTokens",
      "outputs": [
        {
          "internalType": "uint256[]",
          "name": "amounts",
          "type": "uint256[]"
        }
      ],
      "stateMutability": "nonpayable",
      "type": "function"
    },
    {
      "inputs": [
        {
          "internalType": "uint256",
          "name": "amountIn",
          "type": "uint256"
        },
        {
          "internalType": "uint256",
          "name": "amountOutMin",
          "type": "uint256"
        },
        {
          "components": [
            {
              "internalType": "address",
              "name": "pair",
              "type": "address"
            },
            {
              "internalType": "address",
              "name": "from",
              "type": "address"
            },
            {
              "internalType": "address",
              "name": "to",
              "type": "address"
            },
            {
              "internalType": "bool",
              "name": "stable",
              "type": "bool"
            },
            {
              "internalType": "bool",
              "name": "concentrated",
              "type": "bool"
            },
            {
              "internalType": "address",
              "name": "receiver",
              "type": "address"
            }
          ],
          "internalType": "struct IRouter.route[]",
          "name": "routes",
          "type": "tuple[]"
        },
        {
          "internalType": "address",
          "name": "to",
          "type": "address"
        },
        {
          "internalType": "uint256",
          "name": "deadline",
          "type": "uint256"
        }
      ],
      "name": "swapExactTokensForTokensSupportingFeeOnTransferTokens",
      "outputs": [],
      "stateMutability": "nonpayable",
      "type": "function"
    },
    {
      "inputs": [],
      "name": "swapRouter",
      "outputs": [
        {
          "internalType": "address",
          "name": "",
          "type": "address"
        }
      ],
      "stateMutability": "view",
      "type": "function"
    },
    {
      "inputs": [
        {
          "internalType": "address",
          "name": "newOwner",
          "type": "address"
        }
      ],
      "name": "transferOwnership",
      "outputs": [],
      "stateMutability": "nonpayable",
      "type": "function"
    },
    {
      "inputs": [],
      "name": "version",
      "outputs": [
        {
          "internalType": "string",
          "name": "",
          "type": "string"
        }
      ],
      "stateMutability": "pure",
      "type": "function"
    },
    {
      "inputs": [],
      "name": "wETH",
      "outputs": [
        {
          "internalType": "contract IWETH",
          "name": "",
          "type": "address"
        }
      ],
      "stateMutability": "view",
      "type": "function"
    },
    {
      "stateMutability": "payable",
      "type": "receive"
    }
  ],
  "bytecode": "0x60806040523480156200001157600080fd5b50604051620056233803806200562383398101604081905262000034916200011e565b6200003f33620000b1565b600180546001600160a01b03199081166001600160a01b039889161790915560028054821696881696909617909555600380548616948716949094179093556005805485169186169190911790556004805484169185169190911790556006805490921692169190911790556200019f565b600080546001600160a01b038381166001600160a01b0319831681178455604051919092169283917f8be0079c531659141344cd1fd0a4f28419497f9722a3daafe3b4186f6b6457e09190a35050565b80516001600160a01b03811681146200011957600080fd5b919050565b60008060008060008060c087890312156200013857600080fd5b620001438762000101565b9550620001536020880162000101565b9450620001636040880162000101565b9350620001736060880162000101565b9250620001836080880162000101565b91506200019360a0880162000101565b90509295509295509295565b61547480620001af6000396000f3fe6080604052600436106102135760003560e01c806398a0fb3c11610118578063d7fe8bf8116100a0578063e9e7941d1161006f578063e9e7941d14610675578063f0aff68d14610695578063f2428621146106b5578063f2fde38b146106d5578063fe411f14146106f557600080fd5b8063d7fe8bf8146105f5578063dcba74f214610615578063e2d9d4dc14610635578063e837ca721461065557600080fd5b8063bc641f27116100e7578063bc641f2714610562578063c31c9c0714610575578063c45a015514610595578063d41b6825146105b5578063d7b0e0a5146105d557600080fd5b806398a0fb3c146104ef578063a32b1fcd1461050f578063a7b64b041461052f578063b7e0d4c01461054f57600080fd5b80635a47ddc31161019b5780637f64ba031161016a5780637f64ba031461044357806383509d0a1461046357806383b9a7d3146104835780638da5cb5b146104b157806397607530146104cf57600080fd5b80635a47ddc3146103c05780635e60dab5146103fb5780636ba165431461041b578063715018a61461042e57600080fd5b80634386e63c116101e25780634386e63c146102e0578063448725b4146103005780634c1ee03e14610320578063544caa561461035857806354fd4d501461038657600080fd5b80630dede6c4146102395780630e9c045314610273578063204b5c0a1461029357806341273657146102c057600080fd5b36610234576002546001600160a01b0316331461023257610232614698565b005b600080fd5b34801561024557600080fd5b506102596102543660046146e7565b610715565b604080519283526020830191909152015b60405180910390f35b34801561027f57600080fd5b5061023261028e36600461476c565b6108f9565b34801561029f57600080fd5b506102b36102ae3660046147ce565b610923565b60405161026a9190614841565b3480156102cc57600080fd5b506102326102db36600461476c565b610d6e565b3480156102ec57600080fd5b506102596102fb366004614885565b610d98565b34801561030c57600080fd5b5061025961031b3660046148e7565b610ee3565b34801561032c57600080fd5b5061034061033b366004614991565b61103a565b6040516001600160a01b03909116815260200161026a565b34801561036457600080fd5b506103786103733660046149dc565b6110ce565b60405161026a929190614a15565b34801561039257600080fd5b50604080518082018252600b81526a0625c605c605ae0c2e8c6d60ab1b6020820152905161026a9190614a87565b3480156103cc57600080fd5b506103e06103db366004614a9a565b611146565b6040805193845260208401929092529082015260600161026a565b34801561040757600080fd5b50610259610416366004614991565b611331565b6102b3610429366004614b29565b6113e9565b34801561043a57600080fd5b506102326118a8565b34801561044f57600080fd5b50600554610340906001600160a01b031681565b34801561046f57600080fd5b506102b361047e366004614bfb565b6118bc565b34801561048f57600080fd5b506104a361049e366004614cc7565b6119ea565b60405190815260200161026a565b3480156104bd57600080fd5b506000546001600160a01b0316610340565b3480156104db57600080fd5b506102326104ea3660046147ce565b611a91565b3480156104fb57600080fd5b506103e061050a366004614cfe565b611c6f565b34801561051b57600080fd5b5061025961052a366004614d59565b611e56565b34801561053b57600080fd5b50600454610340906001600160a01b031681565b6103e061055d366004614e15565b611f92565b610232610570366004614b29565b612187565b34801561058157600080fd5b50600354610340906001600160a01b031681565b3480156105a157600080fd5b50600154610340906001600160a01b031681565b3480156105c157600080fd5b506102326105d036600461476c565b61248e565b3480156105e157600080fd5b506102596105f0366004614e15565b6124b8565b34801561060157600080fd5b5061023261061036600461476c565b61257e565b34801561062157600080fd5b50600654610340906001600160a01b031681565b34801561064157600080fd5b506102596106503660046148e7565b6125a8565b34801561066157600080fd5b5061023261067036600461476c565b6126fc565b34801561068157600080fd5b506102326106903660046147ce565b612726565b3480156106a157600080fd5b506102b36106b03660046147ce565b612876565b3480156106c157600080fd5b50600254610340906001600160a01b031681565b3480156106e157600080fd5b506102326106f036600461476c565b612da6565b34801561070157600080fd5b50610259610710366004614e15565b612e1f565b60008082428110156107425760405162461bcd60e51b815260040161073990614e87565b60405180910390fd5b600061074f8c8c8c61103a565b6040516323b872dd60e01b81529091506001600160a01b038216906323b872dd9061078290339085908e90600401614ea4565b6020604051808303816000875af11580156107a1573d6000803e3d6000fd5b505050506040513d601f19601f820116820180604052508101906107c59190614ec8565b6107fa5760405162461bcd60e51b8152600401610739906020808252600490820152634954464d60e01b604082015260600190565b60405163226bf2d160e21b81526001600160a01b03878116600483015260009182918416906389afcb449060240160408051808303816000875af1158015610846573d6000803e3d6000fd5b505050506040513d601f19601f8201168201806040525081019061086a9190614ee5565b91509150600061087a8f8f6110ce565b509050806001600160a01b03168f6001600160a01b03161461089d5781836108a0565b82825b90975095508a87108015906108b55750898610155b6108e75760405162461bcd60e51b815260206004820152600360248201526249414160e81b6044820152606401610739565b50505050509850989650505050505050565b610901612eda565b600680546001600160a01b0319166001600160a01b0392909216919091179055565b606081428110156109465760405162461bcd60e51b815260040161073990614e87565b60065460405163161681db60e11b81526001600160a01b0390911690632c2d03b69061097a908b908a908a90600401614f09565b6000604051808303816000875af1158015610999573d6000803e3d6000fd5b505050506040513d6000823e601f3d908101601f191682016040526109c1919081019061502e565b905050809250508682600184516109d891906150cc565b815181106109e8576109e86150e3565b60200260200101511015610a0e5760405162461bcd60e51b8152600401610739906150f9565b85856000818110610a2157610a216150e3565b905060c002016080016020810190610a399190615116565b610aba57610ab586866000818110610a5357610a536150e3565b905060c002016020016020810190610a6b919061476c565b3388886000818110610a7f57610a7f6150e3565b610a9592602060c090920201908101915061476c565b85600081518110610aa857610aa86150e3565b6020026020010151612f34565b610d06565b85856000818110610acd57610acd6150e3565b905060c002016020016020810190610ae5919061476c565b6001600160a01b03166323b872dd333085600081518110610b0857610b086150e3565b60200260200101516040518463ffffffff1660e01b8152600401610b2e93929190614ea4565b6020604051808303816000875af1158015610b4d573d6000803e3d6000fd5b505050506040513d601f19601f82011682018060405250810190610b719190614ec8565b5081600081518110610b8557610b856150e3565b602002602001015186866000818110610ba057610ba06150e3565b905060c002016020016020810190610bb8919061476c565b600354604051636eb1769f60e11b81526001600160a01b039283169263dd62ed3e92610bec92309290911690600401614a15565b602060405180830381865afa158015610c09573d6000803e3d6000fd5b505050506040513d601f19601f82011682018060405250810190610c2d9190615133565b1015610d065785856000818110610c4657610c466150e3565b905060c002016020016020810190610c5e919061476c565b60035483516001600160a01b039283169263095ea7b39216908590600090610c8857610c886150e3565b60200260200101516040518363ffffffff1660e01b8152600401610cc19291906001600160a01b03929092168252602082015260400190565b6020604051808303816000875af1158015610ce0573d6000803e3d6000fd5b505050506040513d601f19601f82011682018060405250810190610d049190614ec8565b505b610d63828787808060200260200160405190810160405280939291908181526020016000905b82821015610d5857610d4960c0830286013681900381019061514c565b81526020019060010190610d2c565b505050505086613089565b509695505050505050565b610d76612eda565b600380546001600160a01b0319166001600160a01b0392909216919091179055565b6001546040516306801cc360e41b8152600091829182916001600160a01b031690636801cc3090610dd1908a908a908a906004016151f7565b602060405180830381865afa158015610dee573d6000803e3d6000fd5b505050506040513d601f19601f82011682018060405250810190610e12919061521b565b90506001600160a01b038116610e2f576000809250925050610eda565b600080610e3d898989611331565b915091506000836001600160a01b03166318160ddd6040518163ffffffff1660e01b8152600401602060405180830381865afa158015610e81573d6000803e3d6000fd5b505050506040513d601f19601f82011682018060405250810190610ea59190615133565b905080610eb28489615238565b610ebc9190615257565b955080610ec98389615238565b610ed39190615257565b9450505050505b94509492505050565b60025460009081908190610f02908f906001600160a01b03168f61103a565b9050806001600160a01b031663d505accf33308a610f20578f610f24565b6000195b8c8b8b8b6040518863ffffffff1660e01b8152600401610f4a9796959493929190615279565b600060405180830381600087803b158015610f6457600080fd5b505af1925050508015610f75575060015b61100857604051636eb1769f60e11b81528c906001600160a01b0383169063dd62ed3e90610fa99033903090600401614a15565b602060405180830381865afa158015610fc6573d6000803e3d6000fd5b505050506040513d601f19601f82011682018060405250810190610fea9190615133565b10156110085760405162461bcd60e51b8152600401610739906152ba565b600254611025908f906001600160a01b03168f8f8f8f8f8f610715565b92509250509b509b9950505050505050505050565b600080600061104986866110ce565b6001546040516306801cc360e41b81529294509092506001600160a01b031690636801cc3090611081908590859089906004016151f7565b602060405180830381865afa15801561109e573d6000803e3d6000fd5b505050506040513d601f19601f820116820180604052508101906110c2919061521b565b925050505b9392505050565b600080826001600160a01b0316846001600160a01b0316106110f15782846110f4565b83835b90925090506001600160a01b038216158015906111235750806001600160a01b0316826001600160a01b031614155b61113f5760405162461bcd60e51b8152600401610739906152ba565b9250929050565b6000806000834281101561116c5760405162461bcd60e51b815260040161073990614e87565b61117b8d8d8d8d8d8d8d613862565b9094509250600061118d8e8e8e61103a565b6001546040516360e8ad4760e01b81526001600160a01b0380841660048301529293509116906360e8ad4790602401602060405180830381865afa1580156111d9573d6000803e3d6000fd5b505050506040513d601f19601f820116820180604052508101906111fd9190614ec8565b80156112685750806001600160a01b03166318160ddd6040518163ffffffff1660e01b8152600401602060405180830381865afa158015611242573d6000803e3d6000fd5b505050506040513d601f19601f820116820180604052508101906112669190615133565b155b1561129a5760405162461bcd60e51b81526020600482015260026024820152614e4160f01b6044820152606401610739565b6112a68e338388612f34565b6112b28d338387612f34565b6040516335313c2160e11b81526001600160a01b038881166004830152821690636a627842906024016020604051808303816000875af11580156112fa573d6000803e3d6000fd5b505050506040513d601f19601f8201168201806040525081019061131e9190615133565b9250505099509950999650505050505050565b600080600061134086866110ce565b50905060008061135188888861103a565b6001600160a01b0316630902f1ac6040518163ffffffff1660e01b8152600401606060405180830381865afa15801561138e573d6000803e3d6000fd5b505050506040513d601f19601f820116820180604052508101906113b291906152d6565b5091509150826001600160a01b0316886001600160a01b0316146113d75780826113da565b81815b90999098509650505050505050565b6060814281101561140c5760405162461bcd60e51b815260040161073990614e87565b6002546001600160a01b03168686600081611429576114296150e3565b905060c002016020016020810190611441919061476c565b6001600160a01b0316146114675760405162461bcd60e51b815260040161073990615304565b60065460405163161681db60e11b81526001600160a01b0390911690632c2d03b69061149b9034908a908a90600401614f09565b6000604051808303816000875af11580156114ba573d6000803e3d6000fd5b505050506040513d6000823e601f3d908101601f191682016040526114e2919081019061502e565b905050809250508682600184516114f991906150cc565b81518110611509576115096150e3565b6020026020010151101561152f5760405162461bcd60e51b8152600401610739906150f9565b60025482516001600160a01b039091169063d0e30db0908490600090611557576115576150e3565b60200260200101516040518263ffffffff1660e01b81526004016000604051808303818588803b15801561158a57600080fd5b505af115801561159e573d6000803e3d6000fd5b5050505050858560008181106115b6576115b66150e3565b905060c0020160800160208101906115ce9190615116565b611705576002546001600160a01b031663a9059cbb61166588886000816115f7576115f76150e3565b905060c00201602001602081019061160f919061476c565b89896000818110611622576116226150e3565b905060c00201604001602081019061163a919061476c565b8a8a600081811061164d5761164d6150e3565b905060c00201606001602081019061033b9190615116565b84600081518110611678576116786150e3565b60200260200101516040518363ffffffff1660e01b81526004016116b19291906001600160a01b03929092168252602082015260400190565b6020604051808303816000875af11580156116d0573d6000803e3d6000fd5b505050506040513d601f19601f820116820180604052508101906116f49190614ec8565b61170057611700614698565b61184c565b81600081518110611718576117186150e3565b6020908102919091010151600254600354604051636eb1769f60e11b81526001600160a01b039283169263dd62ed3e9261175a92309290911690600401614a15565b602060405180830381865afa158015611777573d6000803e3d6000fd5b505050506040513d601f19601f8201168201806040525081019061179b9190615133565b101561184c5760025460035483516001600160a01b039283169263095ea7b392169085906000906117ce576117ce6150e3565b60200260200101516040518363ffffffff1660e01b81526004016118079291906001600160a01b03929092168252602082015260400190565b6020604051808303816000875af1158015611826573d6000803e3d6000fd5b505050506040513d601f19601f8201168201806040525081019061184a9190614ec8565b505b61189e828787808060200260200160405190810160405280939291908181526020016000905b82821015610d585761188f60c0830286013681900381019061514c565b81526020019060010190611872565b5095945050505050565b6118b0612eda565b6118ba6000613a73565b565b606081428110156118df5760405162461bcd60e51b815260040161073990614e87565b61198d868660008181106118f5576118f56150e3565b905060c00201602001602081019061190d919061476c565b3361197a89896000818110611924576119246150e3565b905060c00201602001602081019061193c919061476c565b8a8a600081811061194f5761194f6150e3565b905060c002016040016020810190611967919061476c565b8b8b600081811061164d5761164d6150e3565b8a600081518110610aa857610aa86150e3565b6119df878787808060200260200160405190810160405280939291908181526020016000905b82821015610d58576119d060c0830286013681900381019061514c565b815260200190600101906119b3565b509495945050505050565b6040516378a051ad60e11b8152600481018490526001600160a01b038381166024830152600091829184169063f140a35a90604401602060405180830381865afa925050508015611a58575060408051601f3d908101601f19168201909252611a5591810190615133565b60015b611a6457506000611a67565b90505b6000611a7586868685613ac3565b90508015611a85575090506110c7565b50600095945050505050565b8042811015611ab25760405162461bcd60e51b815260040161073990614e87565b6002546001600160a01b03168585611acb6001826150cc565b818110611ada57611ada6150e3565b905060c002016040016020810190611af2919061476c565b6001600160a01b031614611b185760405162461bcd60e51b815260040161073990615304565b611b6385856000818110611b2e57611b2e6150e3565b905060c002016020016020810190611b46919061476c565b33611b5d888860008181106115f7576115f76150e3565b8a612f34565b611b6e858530613e9a565b6002546040516370a0823160e01b81523060048201526000916001600160a01b0316906370a0823190602401602060405180830381865afa158015611bb7573d6000803e3d6000fd5b505050506040513d601f19601f82011682018060405250810190611bdb9190615133565b905086811015611bfd5760405162461bcd60e51b8152600401610739906150f9565b600254604051632e1a7d4d60e01b8152600481018390526001600160a01b0390911690632e1a7d4d90602401600060405180830381600087803b158015611c4357600080fd5b505af1158015611c57573d6000803e3d6000fd5b50505050611c6584826142b8565b5050505050505050565b6001546040516306801cc360e41b81526000918291829182916001600160a01b0390911690636801cc3090611cac908c908c908c906004016151f7565b602060405180830381865afa158015611cc9573d6000803e3d6000fd5b505050506040513d601f19601f82011682018060405250810190611ced919061521b565b9050600080806001600160a01b03841615611d7757836001600160a01b03166318160ddd6040518163ffffffff1660e01b8152600401602060405180830381865afa158015611d40573d6000803e3d6000fd5b505050506040513d601f19601f82011682018060405250810190611d649190615133565b9050611d718c8c8c611331565b90935091505b82158015611d83575081155b15611db4578896508795506103e8611da3611d9e888a615238565b614360565b611dad91906150cc565b9450611e47565b6000611dc18a85856143d0565b9050888111611e0957899750955085611e0284611dde848b615238565b611de89190615257565b84611df3858b615238565b611dfd9190615257565b614434565b9550611e45565b6000611e168a85876143d0565b9850899750889050611e4185611e2c8584615238565b611e369190615257565b85611df3868c615238565b9650505b505b50505050955095509592505050565b6000806000611e668f8f8f61103a565b9050806001600160a01b031663d505accf33308a611e84578f611e88565b6000195b8c8b8b8b6040518863ffffffff1660e01b8152600401611eae9796959493929190615279565b600060405180830381600087803b158015611ec857600080fd5b505af1925050508015611ed9575060015b611f6c57604051636eb1769f60e11b81528c906001600160a01b0383169063dd62ed3e90611f0d9033903090600401614a15565b602060405180830381865afa158015611f2a573d6000803e3d6000fd5b505050506040513d601f19601f82011682018060405250810190611f4e9190615133565b1015611f6c5760405162461bcd60e51b8152600401610739906152ba565b611f7c8f8f8f8f8f8f8f8f610715565b92509250509c509c9a5050505050505050505050565b60008060008342811015611fb85760405162461bcd60e51b815260040161073990614e87565b600254611fd4908c906001600160a01b03168c8c348d8d613862565b6002549195509350600090611ff4908d906001600160a01b03168d61103a565b90506120028c338388612f34565b600260009054906101000a90046001600160a01b03166001600160a01b031663d0e30db0856040518263ffffffff1660e01b81526004016000604051808303818588803b15801561205257600080fd5b505af1158015612066573d6000803e3d6000fd5b505060025460405163a9059cbb60e01b81526001600160a01b038681166004830152602482018a9052909116935063a9059cbb925060440190506020604051808303816000875af11580156120bf573d6000803e3d6000fd5b505050506040513d601f19601f820116820180604052508101906120e39190614ec8565b6120ef576120ef614698565b6040516335313c2160e11b81526001600160a01b038881166004830152821690636a627842906024016020604051808303816000875af1158015612137573d6000803e3d6000fd5b505050506040513d601f19601f8201168201806040525081019061215b9190615133565b925083341115612178576121783361217386346150cc565b6142b8565b50509750975097945050505050565b80428110156121a85760405162461bcd60e51b815260040161073990614e87565b6002546001600160a01b031685856000816121c5576121c56150e3565b905060c0020160200160208101906121dd919061476c565b6001600160a01b0316146122035760405162461bcd60e51b815260040161073990615304565b60025460408051630d0e30db60e41b8152905134926001600160a01b03169163d0e30db091849160048082019260009290919082900301818588803b15801561224b57600080fd5b505af115801561225f573d6000803e3d6000fd5b50506002548893506001600160a01b0316915063a9059cbb905061228d8984600081611924576119246150e3565b6040516001600160e01b031960e084901b1681526001600160a01b039091166004820152602481018590526044016020604051808303816000875af11580156122da573d6000803e3d6000fd5b505050506040513d601f19601f820116820180604052508101906122fe9190614ec8565b61230a5761230a614698565b600087876123196001856150cc565b818110612328576123286150e3565b905060c002016040016020810190612340919061476c565b6040516370a0823160e01b81526001600160a01b03888116600483015291909116906370a0823190602401602060405180830381865afa158015612388573d6000803e3d6000fd5b505050506040513d601f19601f820116820180604052508101906123ac9190615133565b90506123b9888888613e9a565b88612465828a8a6123cb6001886150cc565b8181106123da576123da6150e3565b905060c0020160400160208101906123f2919061476c565b6040516370a0823160e01b81526001600160a01b038b8116600483015291909116906370a08231906024015b602060405180830381865afa15801561243b573d6000803e3d6000fd5b505050506040513d601f19601f8201168201806040525081019061245f9190615133565b9061444e565b10156124835760405162461bcd60e51b8152600401610739906150f9565b505050505050505050565b612496612eda565b600480546001600160a01b0319166001600160a01b0392909216919091179055565b60008082428110156124dc5760405162461bcd60e51b815260040161073990614e87565b6002546124f9908b906001600160a01b03168b8b8b8b308b610715565b90935091506125098a8685614469565b600254604051632e1a7d4d60e01b8152600481018490526001600160a01b0390911690632e1a7d4d90602401600060405180830381600087803b15801561254f57600080fd5b505af1158015612563573d6000803e3d6000fd5b5050505061257185836142b8565b5097509795505050505050565b612586612eda565b600580546001600160a01b0319166001600160a01b0392909216919091179055565b600254600090819081906125c7908f906001600160a01b03168f61103a565b90506000876125d6578c6125da565b6000195b60405163d505accf60e01b81529091506001600160a01b0383169063d505accf90612615903390309086908f908e908e908e90600401615279565b600060405180830381600087803b15801561262f57600080fd5b505af1925050508015612640575060015b6126d357604051636eb1769f60e11b81528d906001600160a01b0384169063dd62ed3e906126749033903090600401614a15565b602060405180830381865afa158015612691573d6000803e3d6000fd5b505050506040513d601f19601f820116820180604052508101906126b59190615133565b10156126d35760405162461bcd60e51b8152600401610739906152ba565b6126e28f8f8f8f8f8f8f612e1f565b809450819550505050509b509b9950505050505050505050565b612704612eda565b600280546001600160a01b0319166001600160a01b0392909216919091179055565b80428110156127475760405162461bcd60e51b815260040161073990614e87565b61275d85856000818110611b2e57611b2e6150e3565b836000868261276d6001826150cc565b81811061277c5761277c6150e3565b905060c002016040016020810190612794919061476c565b6040516370a0823160e01b81526001600160a01b03878116600483015291909116906370a0823190602401602060405180830381865afa1580156127dc573d6000803e3d6000fd5b505050506040513d601f19601f820116820180604052508101906128009190615133565b905061280d878787613e9a565b8761246582898961281f6001886150cc565b81811061282e5761282e6150e3565b905060c002016040016020810190612846919061476c565b6040516370a0823160e01b81526001600160a01b038a8116600483015291909116906370a082319060240161241e565b606081428110156128995760405162461bcd60e51b815260040161073990614e87565b6002546001600160a01b031686866128b26001826150cc565b8181106128c1576128c16150e3565b905060c0020160400160208101906128d9919061476c565b6001600160a01b0316146128ff5760405162461bcd60e51b815260040161073990615304565b60065460405163161681db60e11b81526001600160a01b0390911690632c2d03b690612933908b908a908a90600401614f09565b6000604051808303816000875af1158015612952573d6000803e3d6000fd5b505050506040513d6000823e601f3d908101601f1916820160405261297a919081019061502e565b9050508092505086826001845161299191906150cc565b815181106129a1576129a16150e3565b602002602001015110156129c75760405162461bcd60e51b8152600401610739906150f9565b858560008181106129da576129da6150e3565b905060c0020160800160208101906129f29190615116565b612a4057612a3b86866000818110612a0c57612a0c6150e3565b905060c002016020016020810190612a24919061476c565b33610a9589896000818110611924576119246150e3565b612c8c565b85856000818110612a5357612a536150e3565b905060c002016020016020810190612a6b919061476c565b6001600160a01b03166323b872dd333085600081518110612a8e57612a8e6150e3565b60200260200101516040518463ffffffff1660e01b8152600401612ab493929190614ea4565b6020604051808303816000875af1158015612ad3573d6000803e3d6000fd5b505050506040513d601f19601f82011682018060405250810190612af79190614ec8565b5081600081518110612b0b57612b0b6150e3565b602002602001015186866000818110612b2657612b266150e3565b905060c002016020016020810190612b3e919061476c565b600354604051636eb1769f60e11b81526001600160a01b039283169263dd62ed3e92612b7292309290911690600401614a15565b602060405180830381865afa158015612b8f573d6000803e3d6000fd5b505050506040513d601f19601f82011682018060405250810190612bb39190615133565b1015612c8c5785856000818110612bcc57612bcc6150e3565b905060c002016020016020810190612be4919061476c565b60035483516001600160a01b039283169263095ea7b39216908590600090612c0e57612c0e6150e3565b60200260200101516040518363ffffffff1660e01b8152600401612c479291906001600160a01b03929092168252602082015260400190565b6020604051808303816000875af1158015612c66573d6000803e3d6000fd5b505050506040513d601f19601f82011682018060405250810190612c8a9190614ec8565b505b612ce9828787808060200260200160405190810160405280939291908181526020016000905b82821015612cde57612ccf60c0830286013681900381019061514c565b81526020019060010190612cb2565b505050505030613089565b60025482516001600160a01b0390911690632e1a7d4d908490612d0e906001906150cc565b81518110612d1e57612d1e6150e3565b60200260200101516040518263ffffffff1660e01b8152600401612d4491815260200190565b600060405180830381600087803b158015612d5e57600080fd5b505af1158015612d72573d6000803e3d6000fd5b50505050610d63848360018551612d8991906150cc565b81518110612d9957612d996150e3565b60200260200101516142b8565b612dae612eda565b6001600160a01b038116612e135760405162461bcd60e51b815260206004820152602660248201527f4f776e61626c653a206e6577206f776e657220697320746865207a65726f206160448201526564647265737360d01b6064820152608401610739565b612e1c81613a73565b50565b6000808242811015612e435760405162461bcd60e51b815260040161073990614e87565b600254612e60908b906001600160a01b03168b8b8b8b308b610715565b6040516370a0823160e01b81523060048201529194509250612509908b9087906001600160a01b038316906370a0823190602401602060405180830381865afa158015612eb1573d6000803e3d6000fd5b505050506040513d601f19601f82011682018060405250810190612ed59190615133565b614469565b6000546001600160a01b031633146118ba5760405162461bcd60e51b815260206004820181905260248201527f4f776e61626c653a2063616c6c6572206973206e6f7420746865206f776e65726044820152606401610739565b6000846001600160a01b03163b11612f785760405162461bcd60e51b815260206004820152600760248201526621a7a222a622a760c91b6044820152606401610739565b600080856001600160a01b03166323b872dd60e01b868686604051602401612fa293929190614ea4565b60408051601f198184030181529181526020820180516001600160e01b03166001600160e01b0319909416939093179092529051612fe09190615321565b6000604051808303816000865af19150503d806000811461301d576040519150601f19603f3d011682016040523d82523d6000602084013e613022565b606091505b509150915081801561304c57508051158061304c57508080602001905181019061304c9190614ec8565b6130815760405162461bcd60e51b81526004016107399060208082526004908201526324a9aa2360e11b604082015260600190565b505050505050565b815160005b8181101561385b5760006001600160a01b03168482815181106130b3576130b36150e3565b602002602001015160a001516001600160a01b0316036130fa5760405162461bcd60e51b81526020600482015260026024820152615a4160f01b6044820152606401610739565b83818151811061310c5761310c6150e3565b6020026020010151608001511561355d5784818151811061312f5761312f6150e3565b6020026020010151848281518110613149576131496150e3565b6020908102919091018101510151600354604051636eb1769f60e11b81526001600160a01b039283169263dd62ed3e9261318b92309290911690600401614a15565b602060405180830381865afa1580156131a8573d6000803e3d6000fd5b505050506040513d601f19601f820116820180604052508101906131cc9190615133565b10156132a4578381815181106131e4576131e46150e3565b6020026020010151602001516001600160a01b031663095ea7b3600360009054906101000a90046001600160a01b0316878481518110613226576132266150e3565b60200260200101516040518363ffffffff1660e01b815260040161325f9291906001600160a01b03929092168252602082015260400190565b6020604051808303816000875af115801561327e573d6000803e3d6000fd5b505050506040513d601f19601f820116820180604052508101906132a29190614ec8565b505b6040805161010081018252600080825260208201819052918101829052606081018290526080810182905260a0810182905260c0810182905260e0810191909152604051806101000160405280868481518110613303576133036150e3565b6020026020010151602001516001600160a01b0316815260200186848151811061332f5761332f6150e3565b6020026020010151604001516001600160a01b03168152602001600560009054906101000a90046001600160a01b03166001600160a01b0316638992848788868151811061337f5761337f6150e3565b6020908102919091010151516040516001600160e01b031960e084901b1681526001600160a01b039091166004820152602401602060405180830381865afa1580156133cf573d6000803e3d6000fd5b505050506040513d601f19601f820116820180604052508101906133f3919061521b565b6001600160a01b03168152602001868481518110613413576134136150e3565b602002602001015160a001516001600160a01b031681526020014261025861343b919061533d565b8152602001878481518110613452576134526150e3565b602090810291909101810151825260008282018190526040928301526003548251630b3ce3c960e11b815284516001600160a01b039081166004830152928501518316602482015292840151821660448401526060840151821660648401526080840151608484015260a084015160a484015260c084015160c484015260e0840151821660e484015292935090911690631679c79290610104016020604051808303816000875af115801561350b573d6000803e3d6000fd5b505050506040513d601f19601f8201168201806040525081019061352f9190615133565b8661353b84600161533d565b8151811061354b5761354b6150e3565b60200260200101818152505050613742565b60006135a3858381518110613574576135746150e3565b602002602001015160200151868481518110613592576135926150e3565b6020026020010151604001516110ce565b5090506000866135b484600161533d565b815181106135c4576135c46150e3565b60200260200101519050600080836001600160a01b03168886815181106135ed576135ed6150e3565b6020026020010151602001516001600160a01b03161461360f57826000613613565b6000835b9150915061367988868151811061362c5761362c6150e3565b60200260200101516020015189878151811061364a5761364a6150e3565b6020026020010151604001518a8881518110613668576136686150e3565b60200260200101516060015161103a565b6001600160a01b031663022c0d9f83838b898151811061369b5761369b6150e3565b602002602001015160a00151600067ffffffffffffffff8111156136c1576136c1614b90565b6040519080825280601f01601f1916602001820160405280156136eb576020820181803683370190505b506040518563ffffffff1660e01b815260040161370b9493929190615355565b600060405180830381600087803b15801561372557600080fd5b505af1158015613739573d6000803e3d6000fd5b50505050505050505b838181518110613754576137546150e3565b602002602001015160a001516001600160a01b0316336001600160a01b03167fe7857fba7d66e2e29213fda7a0394efbaa80d435dfc7b4c1f147d78c2f9caa628784815181106137a6576137a66150e3565b6020026020010151888560016137bc919061533d565b815181106137cc576137cc6150e3565b60200260200101518886815181106137e6576137e66150e3565b602002602001015160200151898781518110613804576138046150e3565b602002602001015160600151604051613841949392919093845260208401929092526001600160a01b031660408301521515606082015260800190565b60405180910390a3806138538161538c565b91505061308e565b5050505050565b6000808386101580156138755750828510155b6138aa5760405162461bcd60e51b815260040161073990602080825260049082015263444c4d4160e01b604082015260600190565b6001546040516306801cc360e41b81526000916001600160a01b031690636801cc30906138df908d908d908d906004016151f7565b602060405180830381865afa1580156138fc573d6000803e3d6000fd5b505050506040513d601f19601f82011682018060405250810190613920919061521b565b90506001600160a01b0381166139aa576001546040516320b7f73960e21b81526001600160a01b03909116906382dfdce490613964908d908d908d906004016151f7565b6020604051808303816000875af1158015613983573d6000803e3d6000fd5b505050506040513d601f19601f820116820180604052508101906139a7919061521b565b90505b6000806139b88c8c8c611331565b915091508160001480156139ca575080155b156139da57889450879350613a22565b60006139e78a84846143d0565b90508881116139fb57899550935083613a20565b6000613a088a84866143d0565b90508a811115613a1a57613a1a614698565b95508894505b505b868510158015613a325750858410155b613a645760405162461bcd60e51b815260206004820152600360248201526249414160e81b6044820152606401610739565b50505097509795505050505050565b600080546001600160a01b038381166001600160a01b0319831681178455604051919092169283917f8be0079c531659141344cd1fd0a4f28419497f9722a3daafe3b4186f6b6457e09190a35050565b6000613b44604051806101a001604052806000815260200160008152602001600081526020016000815260200160001515815260200160006001600160a01b0316815260200160006001600160a01b031681526020016000815260200160008152602001600081526020016000815260200160008152602001600081525090565b836001600160a01b031663392f37e96040518163ffffffff1660e01b815260040160e060405180830381865afa158015613b82573d6000803e3d6000fd5b505050506040513d601f19601f82011682018060405250810190613ba691906153a5565b6001600160a01b0390811660c089015290811660a08801819052911515608088015260608701929092526040808701939093526020860193909352928452516370a0823160e01b815291861660048301526000916370a0823190602401602060405180830381865afa158015613c20573d6000803e3d6000fd5b505050506040513d601f19601f82011682018060405250810190613c449190615133565b60c08301516040516370a0823160e01b81526001600160a01b038881166004830152929350600092909116906370a0823190602401602060405180830381865afa158015613c96573d6000803e3d6000fd5b505050506040513d601f19601f82011682018060405250810190613cba9190615133565b90508260a001516001600160a01b0316876001600160a01b031614613ce0578082613ce3565b81815b61010085015260e084015260a08301516001600160a01b03888116911614613d145782606001518360400151613d1f565b826040015183606001515b61014085015261012084015260a08301516001600160a01b03888116911614613d4e5760208301518351613d56565b825160208401515b610180850152610160840152600154608084015160405163cc56b2c560e01b81526001600160a01b038981166004830152911515602482015261271092919091169063cc56b2c590604401602060405180830381865afa158015613dbe573d6000803e3d6000fd5b505050506040513d601f19601f82011682018060405250810190613de29190615133565b613dec908a615238565b613df69190615257565b613e0090896150cc565b8360e001818151613e11919061533d565b90525061010083018051869190613e299083906150cc565b91508181525050613e5583610120015184610140015185610160015186610180015187608001516145a7565b613e798460e0015185610100015186610160015187610180015188608001516145a7565b10613e8a5760019350505050613e92565b600093505050505b949350505050565b60005b828110156142b257600080858584818110613eba57613eba6150e3565b905060c002016020016020810190613ed2919061476c565b868685818110613ee457613ee46150e3565b905060c002016040016020810190613efc919061476c565b915091506000613f0c83836110ce565b5090506000613f7a888887818110613f2657613f266150e3565b905060c002016020016020810190613f3e919061476c565b898988818110613f5057613f506150e3565b905060c002016040016020810190613f68919061476c565b8a8a8981811061164d5761164d6150e3565b9050600080600080846001600160a01b0316630902f1ac6040518163ffffffff1660e01b8152600401606060405180830381865afa158015613fc0573d6000803e3d6000fd5b505050506040513d601f19601f82011682018060405250810190613fe491906152d6565b50915091506000866001600160a01b0316896001600160a01b03161461400b57818361400e565b82825b506040516370a0823160e01b81526001600160a01b038881166004830152919250614047918391908c16906370a082319060240161241e565b600654604051635e1e632560e01b8152600481018390526001600160a01b038c811660248301528b81166044830152929750911690635e1e6325906064016040805180830381865afa1580156140a1573d6000803e3d6000fd5b505050506040513d601f19601f820116820180604052508101906140c59190615419565b5080945050505050600080856001600160a01b0316886001600160a01b0316146140f1578260006140f5565b6000835b9092509050600061410760018d6150cc565b8a10614113578a61419a565b61419a8d8d6141238d600161533d565b818110614132576141326150e3565b905060c00201602001602081019061414a919061476c565b8e8e6141578e600161533d565b818110614166576141666150e3565b905060c00201604001602081019061417e919061476c565b8f8f61418b8f600161533d565b81811061164d5761164d6150e3565b6040805160008152602081019182905263022c0d9f60e01b9091529091506001600160a01b0387169063022c0d9f906141dc9086908690869060248101615355565b600060405180830381600087803b1580156141f657600080fd5b505af115801561420a573d6000803e3d6000fd5b5050505060008d8d8c818110614222576142226150e3565b905060c00201606001602081019061423a9190615116565b60408051888152602081018890526001600160a01b038d81168284015283151560608301529151929350908e169133917fe7857fba7d66e2e29213fda7a0394efbaa80d435dfc7b4c1f147d78c2f9caa62919081900360800190a35050505050505050505080806142aa9061538c565b915050613e9d565b50505050565b604080516000808252602082019092526001600160a01b0384169083906040516142e29190615321565b60006040518083038185875af1925050503d806000811461431f576040519150601f19603f3d011682016040523d82523d6000602084013e614324565b606091505b505090508061435b5760405162461bcd60e51b815260206004820152600360248201526222aa2360e91b6044820152606401610739565b505050565b600060038211156143c1575080600061437a600283615257565b61438590600161533d565b90505b818110156143bb579050806002816143a08186615257565b6143aa919061533d565b6143b49190615257565b9050614388565b50919050565b81156143cb575060015b919050565b600080841180156143e15750600083115b80156143ed5750600082115b61441f5760405162461bcd60e51b815260206004820152600360248201526212539360ea1b6044820152606401610739565b8261442a8386615238565b613e929190615257565b60008183106144435781614445565b825b90505b92915050565b60008261445b83826150cc565b915081111561444857600080fd5b6000836001600160a01b03163b116144ad5760405162461bcd60e51b815260206004820152600760248201526621a7a222a622a760c91b6044820152606401610739565b604080516001600160a01b038481166024830152604480830185905283518084039091018152606490920183526020820180516001600160e01b031663a9059cbb60e01b17905291516000928392908716916145099190615321565b6000604051808303816000865af19150503d8060008114614546576040519150601f19603f3d011682016040523d82523d6000602084013e61454b565b606091505b50915091508180156145755750805115806145755750808060200190518101906145759190614ec8565b61385b5760405162461bcd60e51b81526020600482015260036024820152621254d560ea1b6044820152606401610739565b60008115614682576000846145c488670de0b6b3a7640000615238565b6145ce9190615257565b90506000846145e588670de0b6b3a7640000615238565b6145ef9190615257565b90506000670de0b6b3a76400006146068385615238565b6146109190615257565b90506000670de0b6b3a76400006146278480615238565b6146319190615257565b670de0b6b3a76400006146448680615238565b61464e9190615257565b614658919061533d565b9050670de0b6b3a764000061466d8284615238565b6146779190615257565b94505050505061468f565b61468c8587615238565b90505b95945050505050565b634e487b7160e01b600052600160045260246000fd5b6001600160a01b0381168114612e1c57600080fd5b80356143cb816146ae565b8015158114612e1c57600080fd5b80356143cb816146ce565b600080600080600080600080610100898b03121561470457600080fd5b883561470f816146ae565b9750602089013561471f816146ae565b9650604089013561472f816146ce565b9550606089013594506080890135935060a0890135925060c0890135614754816146ae565b8092505060e089013590509295985092959890939650565b60006020828403121561477e57600080fd5b81356110c7816146ae565b60008083601f84011261479b57600080fd5b50813567ffffffffffffffff8111156147b357600080fd5b60208301915083602060c08302850101111561113f57600080fd5b60008060008060008060a087890312156147e757600080fd5b8635955060208701359450604087013567ffffffffffffffff81111561480c57600080fd5b61481889828a01614789565b909550935050606087013561482c816146ae565b80925050608087013590509295509295509295565b6020808252825182820181905260009190848201906040850190845b818110156148795783518352928401929184019160010161485d565b50909695505050505050565b6000806000806080858703121561489b57600080fd5b84356148a6816146ae565b935060208501356148b6816146ae565b925060408501356148c6816146ce565b9396929550929360600135925050565b803560ff811681146143cb57600080fd5b60008060008060008060008060008060006101608c8e03121561490957600080fd5b8b35614914816146ae565b9a5060208c0135614924816146ce565b995060408c0135985060608c0135975060808c0135965060a08c0135614949816146ae565b955060c08c0135945060e08c0135614960816146ce565b935061496f6101008d016148d6565b92506101208c013591506101408c013590509295989b509295989b9093969950565b6000806000606084860312156149a657600080fd5b83356149b1816146ae565b925060208401356149c1816146ae565b915060408401356149d1816146ce565b809150509250925092565b600080604083850312156149ef57600080fd5b82356149fa816146ae565b91506020830135614a0a816146ae565b809150509250929050565b6001600160a01b0392831681529116602082015260400190565b60005b83811015614a4a578181015183820152602001614a32565b838111156142b25750506000910152565b60008151808452614a73816020860160208601614a2f565b601f01601f19169290920160200192915050565b6020815260006144456020830184614a5b565b60008060008060008060008060006101208a8c031215614ab957600080fd5b8935614ac4816146ae565b985060208a0135614ad4816146ae565b975060408a0135614ae4816146ce565b965060608a0135955060808a0135945060a08a0135935060c08a0135925060e08a0135614b10816146ae565b809250506101008a013590509295985092959850929598565b600080600080600060808688031215614b4157600080fd5b85359450602086013567ffffffffffffffff811115614b5f57600080fd5b614b6b88828901614789565b9095509350506040860135614b7f816146ae565b949793965091946060013592915050565b634e487b7160e01b600052604160045260246000fd5b604051601f8201601f1916810167ffffffffffffffff81118282101715614bcf57614bcf614b90565b604052919050565b600067ffffffffffffffff821115614bf157614bf1614b90565b5060051b60200190565b600080600080600060808688031215614c1357600080fd5b853567ffffffffffffffff80821115614c2b57600080fd5b818801915088601f830112614c3f57600080fd5b81356020614c54614c4f83614bd7565b614ba6565b82815260059290921b8401810191818101908c841115614c7357600080fd5b948201945b83861015614c9157853582529482019490820190614c78565b99505089013592505080821115614ca757600080fd5b50614cb488828901614789565b9095509350614b7f9050604087016146c3565b600080600060608486031215614cdc57600080fd5b833592506020840135614cee816146ae565b915060408401356149d1816146ae565b600080600080600060a08688031215614d1657600080fd5b8535614d21816146ae565b94506020860135614d31816146ae565b93506040860135614d41816146ce565b94979396509394606081013594506080013592915050565b6000806000806000806000806000806000806101808d8f031215614d7c57600080fd5b8c35614d87816146ae565b9b5060208d0135614d97816146ae565b9a5060408d0135614da7816146ce565b995060608d0135985060808d0135975060a08d0135965060c08d0135614dcc816146ae565b955060e08d013594506101008d0135614de4816146ce565b9350614df36101208e016148d6565b92506101408d013591506101608d013590509295989b509295989b509295989b565b600080600080600080600060e0888a031215614e3057600080fd5b8735614e3b816146ae565b96506020880135614e4b816146ce565b955060408801359450606088013593506080880135925060a0880135614e70816146ae565b8092505060c0880135905092959891949750929550565b60208082526003908201526204558560ec1b604082015260600190565b6001600160a01b039384168152919092166020820152604081019190915260600190565b600060208284031215614eda57600080fd5b81516110c7816146ce565b60008060408385031215614ef857600080fd5b505080516020909101519092909150565b838152604060208083018290528282018490526000919060609081850187855b88811015614fc4578135614f3c816146ae565b6001600160a01b0390811684528285013590614f57826146ae565b908116848601528287013590614f6c826146ae565b168387015281850135614f7e816146ce565b1515838601526080614f918382016146dc565b15159084015260a0614fa48382016146c3565b6001600160a01b03169084015260c0928301929190910190600101614f29565b50909998505050505050505050565b600082601f830112614fe457600080fd5b81516020614ff4614c4f83614bd7565b82815260059290921b8401810191818101908684111561501357600080fd5b8286015b84811015610d635780518352918301918301615017565b60008060006060848603121561504357600080fd5b835167ffffffffffffffff8082111561505b57600080fd5b61506787838801614fd3565b9450602086015191508082111561507d57600080fd5b61508987838801614fd3565b9350604086015191508082111561509f57600080fd5b506150ac86828701614fd3565b9150509250925092565b634e487b7160e01b600052601160045260246000fd5b6000828210156150de576150de6150b6565b500390565b634e487b7160e01b600052603260045260246000fd5b602080825260039082015262494f4160e81b604082015260600190565b60006020828403121561512857600080fd5b81356110c7816146ce565b60006020828403121561514557600080fd5b5051919050565b600060c0828403121561515e57600080fd5b60405160c0810181811067ffffffffffffffff8211171561518157615181614b90565b604052823561518f816146ae565b8152602083013561519f816146ae565b602082015260408301356151b2816146ae565b604082015260608301356151c5816146ce565b606082015260808301356151d8816146ce565b608082015260a08301356151eb816146ae565b60a08201529392505050565b6001600160a01b039384168152919092166020820152901515604082015260600190565b60006020828403121561522d57600080fd5b81516110c7816146ae565b6000816000190483118215151615615252576152526150b6565b500290565b60008261527457634e487b7160e01b600052601260045260246000fd5b500490565b6001600160a01b0397881681529590961660208601526040850193909352606084019190915260ff16608083015260a082015260c081019190915260e00190565b602080825260029082015261494160f01b604082015260600190565b6000806000606084860312156152eb57600080fd5b8351925060208401519150604084015190509250925092565b6020808252600390820152620494e560ec1b604082015260600190565b60008251615333818460208701614a2f565b9190910192915050565b60008219821115615350576153506150b6565b500190565b84815283602082015260018060a01b03831660408201526080606082015260006153826080830184614a5b565b9695505050505050565b60006001820161539e5761539e6150b6565b5060010190565b600080600080600080600060e0888a0312156153c057600080fd5b8751965060208801519550604088015194506060880151935060808801516153e7816146ce565b60a08901519093506153f8816146ae565b60c0890151909250615409816146ae565b8091505092959891949750929550565b6000806040838503121561542c57600080fd5b825191506020830151614a0a816146ce56fea26469706673582212207c3399e592b8ca206a9b5a2d98a415fcbebb9885c991c1ea386ee89fbd57a85b64736f6c634300080d0033",
  "linkReferences": {},
  "deployedLinkReferences": {}
}